{
	"contracts/FundMe.sol": {
		"FundMe": {
			"abi": [
				{
					"inputs": [],
					"stateMutability": "nonpayable",
					"type": "constructor"
				},
				{
					"inputs": [],
					"name": "NotOwner",
					"type": "error"
				},
				{
					"stateMutability": "payable",
					"type": "fallback"
				},
				{
					"inputs": [],
					"name": "MINIMUM_USD",
					"outputs": [
						{
							"internalType": "uint256",
							"name": "",
							"type": "uint256"
						}
					],
					"stateMutability": "view",
					"type": "function"
				},
				{
					"inputs": [
						{
							"internalType": "address",
							"name": "",
							"type": "address"
						}
					],
					"name": "addressToAmount",
					"outputs": [
						{
							"internalType": "uint256",
							"name": "",
							"type": "uint256"
						}
					],
					"stateMutability": "view",
					"type": "function"
				},
				{
					"inputs": [],
					"name": "fund",
					"outputs": [],
					"stateMutability": "payable",
					"type": "function"
				},
				{
					"inputs": [
						{
							"internalType": "uint256",
							"name": "",
							"type": "uint256"
						}
					],
					"name": "funders",
					"outputs": [
						{
							"internalType": "address",
							"name": "",
							"type": "address"
						}
					],
					"stateMutability": "view",
					"type": "function"
				},
				{
					"inputs": [],
					"name": "i_owner",
					"outputs": [
						{
							"internalType": "address",
							"name": "",
							"type": "address"
						}
					],
					"stateMutability": "view",
					"type": "function"
				},
				{
					"inputs": [],
					"name": "withdraw",
					"outputs": [],
					"stateMutability": "nonpayable",
					"type": "function"
				},
				{
					"stateMutability": "payable",
					"type": "receive"
				}
			],
			"devdoc": {
				"kind": "dev",
				"methods": {},
				"version": 1
			},
			"evm": {
				"assembly": "    /* \"contracts/FundMe.sol\":266:2609  contract FundMe {... */\n  mstore(0x40, 0x80)\n    /* \"contracts/FundMe.sol\":639:692  constructor() {... */\n  callvalue\n  dup1\n  iszero\n  tag_1\n  jumpi\n  0x00\n  dup1\n  revert\ntag_1:\n  pop\n    /* \"contracts/FundMe.sol\":674:684  msg.sender */\n  caller\n    /* \"contracts/FundMe.sol\":664:671  i_owner */\n  0x00\n  dup1\n    /* \"contracts/FundMe.sol\":664:684  i_owner = msg.sender */\n  0x0100\n  exp\n  dup2\n  sload\n  dup2\n  0xffffffffffffffffffffffffffffffffffffffff\n  mul\n  not\n  and\n  swap1\n  dup4\n  0xffffffffffffffffffffffffffffffffffffffff\n  and\n  mul\n  or\n  swap1\n  sstore\n  pop\n    /* \"contracts/FundMe.sol\":266:2609  contract FundMe {... */\n  dataSize(sub_0)\n  dup1\n  dataOffset(sub_0)\n  0x00\n  codecopy\n  0x00\n  return\nstop\n\nsub_0: assembly {\n        /* \"contracts/FundMe.sol\":266:2609  contract FundMe {... */\n      mstore(0x40, 0x80)\n      jumpi(tag_1, lt(calldatasize, 0x04))\n      shr(0xe0, calldataload(0x00))\n      dup1\n      0x3c7e7d28\n      eq\n      tag_3\n      jumpi\n      dup1\n      0x3ccfd60b\n      eq\n      tag_4\n      jumpi\n      dup1\n      0x6b69a592\n      eq\n      tag_5\n      jumpi\n      dup1\n      0xb60d4288\n      eq\n      tag_6\n      jumpi\n      dup1\n      0xdba6335f\n      eq\n      tag_7\n      jumpi\n      dup1\n      0xdc0d3dff\n      eq\n      tag_8\n      jumpi\n      jump(tag_2)\n    tag_1:\n      jumpi(tag_2, calldatasize)\n        /* \"contracts/FundMe.sol\":2525:2531  fund() */\n      tag_11\n        /* \"contracts/FundMe.sol\":2525:2529  fund */\n      tag_12\n        /* \"contracts/FundMe.sol\":2525:2531  fund() */\n      jump\t// in\n    tag_11:\n        /* \"contracts/FundMe.sol\":266:2609  contract FundMe {... */\n      stop\n    tag_2:\n        /* \"contracts/FundMe.sol\":2586:2592  fund() */\n      tag_15\n        /* \"contracts/FundMe.sol\":2586:2590  fund */\n      tag_12\n        /* \"contracts/FundMe.sol\":2586:2592  fund() */\n      jump\t// in\n    tag_15:\n        /* \"contracts/FundMe.sol\":266:2609  contract FundMe {... */\n      stop\n        /* \"contracts/FundMe.sol\":579:630  mapping (address => uint256) public addressToAmount */\n    tag_3:\n      callvalue\n      dup1\n      iszero\n      tag_16\n      jumpi\n      0x00\n      dup1\n      revert\n    tag_16:\n      pop\n      tag_17\n      0x04\n      dup1\n      calldatasize\n      sub\n      dup2\n      add\n      swap1\n      tag_18\n      swap2\n      swap1\n      tag_19\n      jump\t// in\n    tag_18:\n      tag_20\n      jump\t// in\n    tag_17:\n      mload(0x40)\n      tag_21\n      swap2\n      swap1\n      tag_22\n      jump\t// in\n    tag_21:\n      mload(0x40)\n      dup1\n      swap2\n      sub\n      swap1\n      return\n        /* \"contracts/FundMe.sol\":1170:2062  function withdraw() public onlyOwner {... */\n    tag_4:\n      callvalue\n      dup1\n      iszero\n      tag_23\n      jumpi\n      0x00\n      dup1\n      revert\n    tag_23:\n      pop\n      tag_24\n      tag_25\n      jump\t// in\n    tag_24:\n      stop\n        /* \"contracts/FundMe.sol\":334:381  uint256 public constant MINIMUM_USD = 50 * 1e18 */\n    tag_5:\n      callvalue\n      dup1\n      iszero\n      tag_26\n      jumpi\n      0x00\n      dup1\n      revert\n    tag_26:\n      pop\n      tag_27\n      tag_28\n      jump\t// in\n    tag_27:\n      mload(0x40)\n      tag_29\n      swap2\n      swap1\n      tag_22\n      jump\t// in\n    tag_29:\n      mload(0x40)\n      dup1\n      swap2\n      sub\n      swap1\n      return\n        /* \"contracts/FundMe.sol\":700:1162  function fund() public payable {... */\n    tag_6:\n      tag_30\n      tag_12\n      jump\t// in\n    tag_30:\n      stop\n        /* \"contracts/FundMe.sol\":453:475  address public i_owner */\n    tag_7:\n      callvalue\n      dup1\n      iszero\n      tag_31\n      jumpi\n      0x00\n      dup1\n      revert\n    tag_31:\n      pop\n      tag_32\n      tag_33\n      jump\t// in\n    tag_32:\n      mload(0x40)\n      tag_34\n      swap2\n      swap1\n      tag_35\n      jump\t// in\n    tag_34:\n      mload(0x40)\n      dup1\n      swap2\n      sub\n      swap1\n      return\n        /* \"contracts/FundMe.sol\":548:572  address[] public funders */\n    tag_8:\n      callvalue\n      dup1\n      iszero\n      tag_36\n      jumpi\n      0x00\n      dup1\n      revert\n    tag_36:\n      pop\n      tag_37\n      0x04\n      dup1\n      calldatasize\n      sub\n      dup2\n      add\n      swap1\n      tag_38\n      swap2\n      swap1\n      tag_39\n      jump\t// in\n    tag_38:\n      tag_40\n      jump\t// in\n    tag_37:\n      mload(0x40)\n      tag_41\n      swap2\n      swap1\n      tag_35\n      jump\t// in\n    tag_41:\n      mload(0x40)\n      dup1\n      swap2\n      sub\n      swap1\n      return\n        /* \"contracts/FundMe.sol\":700:1162  function fund() public payable {... */\n    tag_12:\n        /* \"contracts/FundMe.sol\":372:381  50 * 1e18 */\n      0x02b5e3af16b1880000\n        /* \"contracts/FundMe.sol\":869:898  msg.value.getConversionRate() */\n      tag_43\n        /* \"contracts/FundMe.sol\":869:878  msg.value */\n      callvalue\n        /* \"contracts/FundMe.sol\":869:896  msg.value.getConversionRate */\n      tag_44\n        /* \"contracts/FundMe.sol\":869:898  msg.value.getConversionRate() */\n      jump\t// in\n    tag_43:\n        /* \"contracts/FundMe.sol\":869:913  msg.value.getConversionRate() >= MINIMUM_USD */\n      lt\n      iszero\n        /* \"contracts/FundMe.sol\":861:943  require(msg.value.getConversionRate() >= MINIMUM_USD,\"Don't have enough Balance,\") */\n      tag_45\n      jumpi\n      mload(0x40)\n      0x08c379a000000000000000000000000000000000000000000000000000000000\n      dup2\n      mstore\n      0x04\n      add\n      tag_46\n      swap1\n      tag_47\n      jump\t// in\n    tag_46:\n      mload(0x40)\n      dup1\n      swap2\n      sub\n      swap1\n      revert\n    tag_45:\n        /* \"contracts/FundMe.sol\":1080:1087  funders */\n      0x01\n        /* \"contracts/FundMe.sol\":1093:1103  msg.sender */\n      caller\n        /* \"contracts/FundMe.sol\":1080:1104  funders.push(msg.sender) */\n      swap1\n      dup1\n      0x01\n      dup2\n      sload\n      add\n      dup1\n      dup3\n      sstore\n      dup1\n      swap2\n      pop\n      pop\n      0x01\n      swap1\n      sub\n      swap1\n      0x00\n      mstore\n      keccak256(0x00, 0x20)\n      add\n      0x00\n      swap1\n      swap2\n      swap1\n      swap2\n      swap1\n      swap2\n      0x0100\n      exp\n      dup2\n      sload\n      dup2\n      0xffffffffffffffffffffffffffffffffffffffff\n      mul\n      not\n      and\n      swap1\n      dup4\n      0xffffffffffffffffffffffffffffffffffffffff\n      and\n      mul\n      or\n      swap1\n      sstore\n      pop\n        /* \"contracts/FundMe.sol\":1145:1154  msg.value */\n      callvalue\n        /* \"contracts/FundMe.sol\":1115:1130  addressToAmount */\n      0x02\n        /* \"contracts/FundMe.sol\":1115:1142  addressToAmount[msg.sender] */\n      0x00\n        /* \"contracts/FundMe.sol\":1131:1141  msg.sender */\n      caller\n        /* \"contracts/FundMe.sol\":1115:1142  addressToAmount[msg.sender] */\n      0xffffffffffffffffffffffffffffffffffffffff\n      and\n      0xffffffffffffffffffffffffffffffffffffffff\n      and\n      dup2\n      mstore\n      0x20\n      add\n      swap1\n      dup2\n      mstore\n      0x20\n      add\n      0x00\n      keccak256\n        /* \"contracts/FundMe.sol\":1115:1154  addressToAmount[msg.sender] = msg.value */\n      dup2\n      swap1\n      sstore\n      pop\n        /* \"contracts/FundMe.sol\":700:1162  function fund() public payable {... */\n      jump\t// out\n        /* \"contracts/FundMe.sol\":579:630  mapping (address => uint256) public addressToAmount */\n    tag_20:\n      mstore(0x20, 0x02)\n      dup1\n      0x00\n      mstore\n      keccak256(0x00, 0x40)\n      0x00\n      swap2\n      pop\n      swap1\n      pop\n      sload\n      dup2\n      jump\t// out\n        /* \"contracts/FundMe.sol\":1170:2062  function withdraw() public onlyOwner {... */\n    tag_25:\n        /* \"contracts/FundMe.sol\":2188:2195  i_owner */\n      0x00\n      dup1\n      sload\n      swap1\n      0x0100\n      exp\n      swap1\n      div\n      0xffffffffffffffffffffffffffffffffffffffff\n      and\n        /* \"contracts/FundMe.sol\":2174:2195  msg.sender != i_owner */\n      0xffffffffffffffffffffffffffffffffffffffff\n      and\n        /* \"contracts/FundMe.sol\":2174:2184  msg.sender */\n      caller\n        /* \"contracts/FundMe.sol\":2174:2195  msg.sender != i_owner */\n      0xffffffffffffffffffffffffffffffffffffffff\n      and\n      eq\n        /* \"contracts/FundMe.sol\":2171:2227  if(msg.sender != i_owner)... */\n      tag_50\n      jumpi\n        /* \"contracts/FundMe.sol\":2217:2227  NotOwner() */\n      mload(0x40)\n      0x30cd747100000000000000000000000000000000000000000000000000000000\n      dup2\n      mstore\n      0x04\n      add\n      mload(0x40)\n      dup1\n      swap2\n      sub\n      swap1\n      revert\n        /* \"contracts/FundMe.sol\":2171:2227  if(msg.sender != i_owner)... */\n    tag_50:\n        /* \"contracts/FundMe.sol\":1222:1241  uint256 funderIndex */\n      0x00\n        /* \"contracts/FundMe.sol\":1218:1398  for(uint256 funderIndex = 0; funderIndex<funders.length; funderIndex++) {... */\n    tag_52:\n        /* \"contracts/FundMe.sol\":1259:1266  funders */\n      0x01\n        /* \"contracts/FundMe.sol\":1259:1273  funders.length */\n      dup1\n      sload\n      swap1\n      pop\n        /* \"contracts/FundMe.sol\":1247:1258  funderIndex */\n      dup2\n        /* \"contracts/FundMe.sol\":1247:1273  funderIndex<funders.length */\n      lt\n        /* \"contracts/FundMe.sol\":1218:1398  for(uint256 funderIndex = 0; funderIndex<funders.length; funderIndex++) {... */\n      iszero\n      tag_53\n      jumpi\n        /* \"contracts/FundMe.sol\":1305:1319  address funder */\n      0x00\n        /* \"contracts/FundMe.sol\":1322:1329  funders */\n      0x01\n        /* \"contracts/FundMe.sol\":1330:1341  funderIndex */\n      dup3\n        /* \"contracts/FundMe.sol\":1322:1342  funders[funderIndex] */\n      dup2\n      sload\n      dup2\n      lt\n      tag_55\n      jumpi\n      tag_56\n      tag_57\n      jump\t// in\n    tag_56:\n    tag_55:\n      swap1\n      0x00\n      mstore\n      keccak256(0x00, 0x20)\n      add\n      0x00\n      swap1\n      sload\n      swap1\n      0x0100\n      exp\n      swap1\n      div\n      0xffffffffffffffffffffffffffffffffffffffff\n      and\n        /* \"contracts/FundMe.sol\":1305:1342  address funder = funders[funderIndex] */\n      swap1\n      pop\n        /* \"contracts/FundMe.sol\":1385:1386  0 */\n      0x00\n        /* \"contracts/FundMe.sol\":1359:1374  addressToAmount */\n      0x02\n        /* \"contracts/FundMe.sol\":1359:1382  addressToAmount[funder] */\n      0x00\n        /* \"contracts/FundMe.sol\":1375:1381  funder */\n      dup4\n        /* \"contracts/FundMe.sol\":1359:1382  addressToAmount[funder] */\n      0xffffffffffffffffffffffffffffffffffffffff\n      and\n      0xffffffffffffffffffffffffffffffffffffffff\n      and\n      dup2\n      mstore\n      0x20\n      add\n      swap1\n      dup2\n      mstore\n      0x20\n      add\n      0x00\n      keccak256\n        /* \"contracts/FundMe.sol\":1359:1386  addressToAmount[funder] = 0 */\n      dup2\n      swap1\n      sstore\n      pop\n        /* \"contracts/FundMe.sol\":1290:1398  {... */\n      pop\n        /* \"contracts/FundMe.sol\":1275:1288  funderIndex++ */\n      dup1\n      dup1\n      0x01\n      add\n      swap2\n      pop\n      pop\n        /* \"contracts/FundMe.sol\":1218:1398  for(uint256 funderIndex = 0; funderIndex<funders.length; funderIndex++) {... */\n      jump(tag_52)\n    tag_53:\n      pop\n        /* \"contracts/FundMe.sol\":1462:1463  0 */\n      0x00\n        /* \"contracts/FundMe.sol\":1448:1464  new address[](0) */\n      0xffffffffffffffff\n      dup2\n      gt\n      iszero\n      tag_59\n      jumpi\n      tag_60\n      tag_61\n      jump\t// in\n    tag_60:\n    tag_59:\n      mload(0x40)\n      swap1\n      dup1\n      dup3\n      mstore\n      dup1\n      0x20\n      mul\n      0x20\n      add\n      dup3\n      add\n      0x40\n      mstore\n      dup1\n      iszero\n      tag_62\n      jumpi\n      dup2\n      0x20\n      add\n      0x20\n      dup3\n      mul\n      dup1\n      calldatasize\n      dup4\n      calldatacopy\n      dup1\n      dup3\n      add\n      swap2\n      pop\n      pop\n      swap1\n      pop\n    tag_62:\n      pop\n        /* \"contracts/FundMe.sol\":1438:1445  funders */\n      0x01\n        /* \"contracts/FundMe.sol\":1438:1464  funders = new address[](0) */\n      swap1\n      dup1\n      mload\n      swap1\n      0x20\n      add\n      swap1\n      tag_63\n      swap3\n      swap2\n      swap1\n      tag_64\n      jump\t// in\n    tag_63:\n      pop\n        /* \"contracts/FundMe.sol\":1910:1926  bool callSuccess */\n      0x00\n        /* \"contracts/FundMe.sol\":1962:1969  i_owner */\n      dup1\n      0x00\n      swap1\n      sload\n      swap1\n      0x0100\n      exp\n      swap1\n      div\n      0xffffffffffffffffffffffffffffffffffffffff\n      and\n        /* \"contracts/FundMe.sol\":1962:1974  i_owner.call */\n      0xffffffffffffffffffffffffffffffffffffffff\n      and\n        /* \"contracts/FundMe.sol\":1982:2003  address(this).balance */\n      selfbalance\n        /* \"contracts/FundMe.sol\":1962:2008  i_owner.call{value: address(this).balance}(\"\") */\n      mload(0x40)\n      tag_65\n      swap1\n      tag_66\n      jump\t// in\n    tag_65:\n      0x00\n      mload(0x40)\n      dup1\n      dup4\n      sub\n      dup2\n      dup6\n      dup8\n      gas\n      call\n      swap3\n      pop\n      pop\n      pop\n      returndatasize\n      dup1\n      0x00\n      dup2\n      eq\n      tag_69\n      jumpi\n      mload(0x40)\n      swap2\n      pop\n      and(add(returndatasize, 0x3f), not(0x1f))\n      dup3\n      add\n      0x40\n      mstore\n      returndatasize\n      dup3\n      mstore\n      returndatasize\n      0x00\n      0x20\n      dup5\n      add\n      returndatacopy\n      jump(tag_68)\n    tag_69:\n      0x60\n      swap2\n      pop\n    tag_68:\n      pop\n        /* \"contracts/FundMe.sol\":1909:2008  (bool callSuccess, /* bool memory dataReturned */) = i_owner.call{value: address(this).balance}(\"\") */\n      pop\n      swap1\n      pop\n        /* \"contracts/FundMe.sol\":2027:2038  callSuccess */\n      dup1\n        /* \"contracts/FundMe.sol\":2019:2054  require(callSuccess, \"Call Failed\") */\n      tag_70\n      jumpi\n      mload(0x40)\n      0x08c379a000000000000000000000000000000000000000000000000000000000\n      dup2\n      mstore\n      0x04\n      add\n      tag_71\n      swap1\n      tag_72\n      jump\t// in\n    tag_71:\n      mload(0x40)\n      dup1\n      swap2\n      sub\n      swap1\n      revert\n    tag_70:\n        /* \"contracts/FundMe.sol\":1207:2062  {... */\n      pop\n        /* \"contracts/FundMe.sol\":1170:2062  function withdraw() public onlyOwner {... */\n      jump\t// out\n        /* \"contracts/FundMe.sol\":334:381  uint256 public constant MINIMUM_USD = 50 * 1e18 */\n    tag_28:\n        /* \"contracts/FundMe.sol\":372:381  50 * 1e18 */\n      0x02b5e3af16b1880000\n        /* \"contracts/FundMe.sol\":334:381  uint256 public constant MINIMUM_USD = 50 * 1e18 */\n      dup2\n      jump\t// out\n        /* \"contracts/FundMe.sol\":453:475  address public i_owner */\n    tag_33:\n      0x00\n      dup1\n      sload\n      swap1\n      0x0100\n      exp\n      swap1\n      div\n      0xffffffffffffffffffffffffffffffffffffffff\n      and\n      dup2\n      jump\t// out\n        /* \"contracts/FundMe.sol\":548:572  address[] public funders */\n    tag_40:\n      0x01\n      dup2\n      dup2\n      sload\n      dup2\n      lt\n      tag_73\n      jumpi\n      0x00\n      dup1\n      revert\n    tag_73:\n      swap1\n      0x00\n      mstore\n      keccak256(0x00, 0x20)\n      add\n      0x00\n      swap2\n      pop\n      sload\n      swap1\n      0x0100\n      exp\n      swap1\n      div\n      0xffffffffffffffffffffffffffffffffffffffff\n      and\n      dup2\n      jump\t// out\n        /* \"contracts/PriceConverter.sol\":1126:1348  function getConversionRate(uint256 ethAmount) internal view returns(uint256) {... */\n    tag_44:\n        /* \"contracts/PriceConverter.sol\":1194:1201  uint256 */\n      0x00\n        /* \"contracts/PriceConverter.sol\":1214:1230  uint256 ethPrice */\n      dup1\n        /* \"contracts/PriceConverter.sol\":1233:1243  getPrice() */\n      tag_76\n        /* \"contracts/PriceConverter.sol\":1233:1241  getPrice */\n      tag_77\n        /* \"contracts/PriceConverter.sol\":1233:1243  getPrice() */\n      jump\t// in\n    tag_76:\n        /* \"contracts/PriceConverter.sol\":1214:1243  uint256 ethPrice = getPrice() */\n      swap1\n      pop\n        /* \"contracts/PriceConverter.sol\":1254:1276  uint256 ethAmountInUSD */\n      0x00\n        /* \"contracts/PriceConverter.sol\":1302:1306  1e18 */\n      0x0de0b6b3a7640000\n        /* \"contracts/PriceConverter.sol\":1289:1298  ethAmount */\n      dup5\n        /* \"contracts/PriceConverter.sol\":1280:1288  ethPrice */\n      dup4\n        /* \"contracts/PriceConverter.sol\":1280:1298  ethPrice*ethAmount */\n      tag_78\n      swap2\n      swap1\n      tag_79\n      jump\t// in\n    tag_78:\n        /* \"contracts/PriceConverter.sol\":1279:1306  (ethPrice*ethAmount) / 1e18 */\n      tag_80\n      swap2\n      swap1\n      tag_81\n      jump\t// in\n    tag_80:\n        /* \"contracts/PriceConverter.sol\":1254:1306  uint256 ethAmountInUSD = (ethPrice*ethAmount) / 1e18 */\n      swap1\n      pop\n        /* \"contracts/PriceConverter.sol\":1326:1340  ethAmountInUSD */\n      dup1\n        /* \"contracts/PriceConverter.sol\":1319:1340  return ethAmountInUSD */\n      swap3\n      pop\n      pop\n      pop\n        /* \"contracts/PriceConverter.sol\":1126:1348  function getConversionRate(uint256 ethAmount) internal view returns(uint256) {... */\n      swap2\n      swap1\n      pop\n      jump\t// out\n        /* \"contracts/PriceConverter.sol\":173:686  function getPrice() internal  view returns(uint256) {... */\n    tag_77:\n        /* \"contracts/PriceConverter.sol\":216:223  uint256 */\n      0x00\n        /* \"contracts/PriceConverter.sol\":315:346  AggregatorV3Interface priceFeed */\n      dup1\n        /* \"contracts/PriceConverter.sol\":371:413  0x694AA1769357215DE4FAC081bf1f309aDC325306 */\n      0x694aa1769357215de4fac081bf1f309adc325306\n        /* \"contracts/PriceConverter.sol\":315:414  AggregatorV3Interface priceFeed = AggregatorV3Interface(0x694AA1769357215DE4FAC081bf1f309aDC325306) */\n      swap1\n      pop\n        /* \"contracts/PriceConverter.sol\":445:455  int answer */\n      0x00\n        /* \"contracts/PriceConverter.sol\":524:533  priceFeed */\n      dup2\n        /* \"contracts/PriceConverter.sol\":524:549  priceFeed.latestRoundData */\n      0xffffffffffffffffffffffffffffffffffffffff\n      and\n      0xfeaf968c\n        /* \"contracts/PriceConverter.sol\":524:551  priceFeed.latestRoundData() */\n      mload(0x40)\n      dup2\n      0xffffffff\n      and\n      0xe0\n      shl\n      dup2\n      mstore\n      0x04\n      add\n      0xa0\n      mload(0x40)\n      dup1\n      dup4\n      sub\n      dup2\n      dup7\n      gas\n      staticcall\n      iszero\n      dup1\n      iszero\n      tag_84\n      jumpi\n      returndatasize\n      0x00\n      dup1\n      returndatacopy\n      revert(0x00, returndatasize)\n    tag_84:\n      pop\n      pop\n      pop\n      pop\n      mload(0x40)\n      returndatasize\n      not(0x1f)\n      0x1f\n      dup3\n      add\n      and\n      dup3\n      add\n      dup1\n      0x40\n      mstore\n      pop\n      dup2\n      add\n      swap1\n      tag_85\n      swap2\n      swap1\n      tag_86\n      jump\t// in\n    tag_85:\n        /* \"contracts/PriceConverter.sol\":425:551  (/*uint80 roundId*/,int answer,/*uint StartedAt*/,/*uint timeStamp*/,/*uint80 answeredInRound*/) = priceFeed.latestRoundData() */\n      pop\n      pop\n      pop\n      swap2\n      pop\n      pop\n        /* \"contracts/PriceConverter.sol\":616:620  1e10 */\n      0x02540be400\n        /* \"contracts/PriceConverter.sol\":609:615  answer */\n      dup2\n        /* \"contracts/PriceConverter.sol\":609:620  answer*1e10 */\n      tag_87\n      swap2\n      swap1\n      tag_88\n      jump\t// in\n    tag_87:\n        /* \"contracts/PriceConverter.sol\":594:621  return uint256(answer*1e10) */\n      swap3\n      pop\n      pop\n      pop\n        /* \"contracts/PriceConverter.sol\":173:686  function getPrice() internal  view returns(uint256) {... */\n      swap1\n      jump\t// out\n    tag_64:\n      dup3\n      dup1\n      sload\n      dup3\n      dup3\n      sstore\n      swap1\n      0x00\n      mstore\n      keccak256(0x00, 0x20)\n      swap1\n      dup2\n      add\n      swap3\n      dup3\n      iszero\n      tag_89\n      jumpi\n      swap2\n      0x20\n      mul\n      dup3\n      add\n    tag_90:\n      dup3\n      dup2\n      gt\n      iszero\n      tag_91\n      jumpi\n      dup3\n      mload\n      dup3\n      exp(0x0100, 0x00)\n      dup2\n      sload\n      dup2\n      0xffffffffffffffffffffffffffffffffffffffff\n      mul\n      not\n      and\n      swap1\n      dup4\n      0xffffffffffffffffffffffffffffffffffffffff\n      and\n      mul\n      or\n      swap1\n      sstore\n      pop\n      swap2\n      0x20\n      add\n      swap2\n      swap1\n      0x01\n      add\n      swap1\n      jump(tag_90)\n    tag_91:\n    tag_89:\n      pop\n      swap1\n      pop\n      tag_92\n      swap2\n      swap1\n      tag_93\n      jump\t// in\n    tag_92:\n      pop\n      swap1\n      jump\t// out\n    tag_93:\n    tag_94:\n      dup1\n      dup3\n      gt\n      iszero\n      tag_95\n      jumpi\n      0x00\n      dup2\n      0x00\n      swap1\n      sstore\n      pop\n      0x01\n      add\n      jump(tag_94)\n    tag_95:\n      pop\n      swap1\n      jump\t// out\n        /* \"#utility.yul\":88:205   */\n    tag_97:\n        /* \"#utility.yul\":197:198   */\n      0x00\n        /* \"#utility.yul\":194:195   */\n      dup1\n        /* \"#utility.yul\":187:199   */\n      revert\n        /* \"#utility.yul\":334:460   */\n    tag_99:\n        /* \"#utility.yul\":371:378   */\n      0x00\n        /* \"#utility.yul\":411:453   */\n      0xffffffffffffffffffffffffffffffffffffffff\n        /* \"#utility.yul\":404:409   */\n      dup3\n        /* \"#utility.yul\":400:454   */\n      and\n        /* \"#utility.yul\":389:454   */\n      swap1\n      pop\n        /* \"#utility.yul\":334:460   */\n      swap2\n      swap1\n      pop\n      jump\t// out\n        /* \"#utility.yul\":466:562   */\n    tag_100:\n        /* \"#utility.yul\":503:510   */\n      0x00\n        /* \"#utility.yul\":532:556   */\n      tag_131\n        /* \"#utility.yul\":550:555   */\n      dup3\n        /* \"#utility.yul\":532:556   */\n      tag_99\n      jump\t// in\n    tag_131:\n        /* \"#utility.yul\":521:556   */\n      swap1\n      pop\n        /* \"#utility.yul\":466:562   */\n      swap2\n      swap1\n      pop\n      jump\t// out\n        /* \"#utility.yul\":568:690   */\n    tag_101:\n        /* \"#utility.yul\":641:665   */\n      tag_133\n        /* \"#utility.yul\":659:664   */\n      dup2\n        /* \"#utility.yul\":641:665   */\n      tag_100\n      jump\t// in\n    tag_133:\n        /* \"#utility.yul\":634:639   */\n      dup2\n        /* \"#utility.yul\":631:666   */\n      eq\n        /* \"#utility.yul\":621:684   */\n      tag_134\n      jumpi\n        /* \"#utility.yul\":680:681   */\n      0x00\n        /* \"#utility.yul\":677:678   */\n      dup1\n        /* \"#utility.yul\":670:682   */\n      revert\n        /* \"#utility.yul\":621:684   */\n    tag_134:\n        /* \"#utility.yul\":568:690   */\n      pop\n      jump\t// out\n        /* \"#utility.yul\":696:835   */\n    tag_102:\n        /* \"#utility.yul\":742:747   */\n      0x00\n        /* \"#utility.yul\":780:786   */\n      dup2\n        /* \"#utility.yul\":767:787   */\n      calldataload\n        /* \"#utility.yul\":758:787   */\n      swap1\n      pop\n        /* \"#utility.yul\":796:829   */\n      tag_136\n        /* \"#utility.yul\":823:828   */\n      dup2\n        /* \"#utility.yul\":796:829   */\n      tag_101\n      jump\t// in\n    tag_136:\n        /* \"#utility.yul\":696:835   */\n      swap3\n      swap2\n      pop\n      pop\n      jump\t// out\n        /* \"#utility.yul\":841:1170   */\n    tag_19:\n        /* \"#utility.yul\":900:906   */\n      0x00\n        /* \"#utility.yul\":949:951   */\n      0x20\n        /* \"#utility.yul\":937:946   */\n      dup3\n        /* \"#utility.yul\":928:935   */\n      dup5\n        /* \"#utility.yul\":924:947   */\n      sub\n        /* \"#utility.yul\":920:952   */\n      slt\n        /* \"#utility.yul\":917:1036   */\n      iszero\n      tag_138\n      jumpi\n        /* \"#utility.yul\":955:1034   */\n      tag_139\n      tag_97\n      jump\t// in\n    tag_139:\n        /* \"#utility.yul\":917:1036   */\n    tag_138:\n        /* \"#utility.yul\":1075:1076   */\n      0x00\n        /* \"#utility.yul\":1100:1153   */\n      tag_140\n        /* \"#utility.yul\":1145:1152   */\n      dup5\n        /* \"#utility.yul\":1136:1142   */\n      dup3\n        /* \"#utility.yul\":1125:1134   */\n      dup6\n        /* \"#utility.yul\":1121:1143   */\n      add\n        /* \"#utility.yul\":1100:1153   */\n      tag_102\n      jump\t// in\n    tag_140:\n        /* \"#utility.yul\":1090:1153   */\n      swap2\n      pop\n        /* \"#utility.yul\":1046:1163   */\n      pop\n        /* \"#utility.yul\":841:1170   */\n      swap3\n      swap2\n      pop\n      pop\n      jump\t// out\n        /* \"#utility.yul\":1176:1253   */\n    tag_103:\n        /* \"#utility.yul\":1213:1220   */\n      0x00\n        /* \"#utility.yul\":1242:1247   */\n      dup2\n        /* \"#utility.yul\":1231:1247   */\n      swap1\n      pop\n        /* \"#utility.yul\":1176:1253   */\n      swap2\n      swap1\n      pop\n      jump\t// out\n        /* \"#utility.yul\":1259:1377   */\n    tag_104:\n        /* \"#utility.yul\":1346:1370   */\n      tag_143\n        /* \"#utility.yul\":1364:1369   */\n      dup2\n        /* \"#utility.yul\":1346:1370   */\n      tag_103\n      jump\t// in\n    tag_143:\n        /* \"#utility.yul\":1341:1344   */\n      dup3\n        /* \"#utility.yul\":1334:1371   */\n      mstore\n        /* \"#utility.yul\":1259:1377   */\n      pop\n      pop\n      jump\t// out\n        /* \"#utility.yul\":1383:1605   */\n    tag_22:\n        /* \"#utility.yul\":1476:1480   */\n      0x00\n        /* \"#utility.yul\":1514:1516   */\n      0x20\n        /* \"#utility.yul\":1503:1512   */\n      dup3\n        /* \"#utility.yul\":1499:1517   */\n      add\n        /* \"#utility.yul\":1491:1517   */\n      swap1\n      pop\n        /* \"#utility.yul\":1527:1598   */\n      tag_145\n        /* \"#utility.yul\":1595:1596   */\n      0x00\n        /* \"#utility.yul\":1584:1593   */\n      dup4\n        /* \"#utility.yul\":1580:1597   */\n      add\n        /* \"#utility.yul\":1571:1577   */\n      dup5\n        /* \"#utility.yul\":1527:1598   */\n      tag_104\n      jump\t// in\n    tag_145:\n        /* \"#utility.yul\":1383:1605   */\n      swap3\n      swap2\n      pop\n      pop\n      jump\t// out\n        /* \"#utility.yul\":1611:1729   */\n    tag_105:\n        /* \"#utility.yul\":1698:1722   */\n      tag_147\n        /* \"#utility.yul\":1716:1721   */\n      dup2\n        /* \"#utility.yul\":1698:1722   */\n      tag_100\n      jump\t// in\n    tag_147:\n        /* \"#utility.yul\":1693:1696   */\n      dup3\n        /* \"#utility.yul\":1686:1723   */\n      mstore\n        /* \"#utility.yul\":1611:1729   */\n      pop\n      pop\n      jump\t// out\n        /* \"#utility.yul\":1735:1957   */\n    tag_35:\n        /* \"#utility.yul\":1828:1832   */\n      0x00\n        /* \"#utility.yul\":1866:1868   */\n      0x20\n        /* \"#utility.yul\":1855:1864   */\n      dup3\n        /* \"#utility.yul\":1851:1869   */\n      add\n        /* \"#utility.yul\":1843:1869   */\n      swap1\n      pop\n        /* \"#utility.yul\":1879:1950   */\n      tag_149\n        /* \"#utility.yul\":1947:1948   */\n      0x00\n        /* \"#utility.yul\":1936:1945   */\n      dup4\n        /* \"#utility.yul\":1932:1949   */\n      add\n        /* \"#utility.yul\":1923:1929   */\n      dup5\n        /* \"#utility.yul\":1879:1950   */\n      tag_105\n      jump\t// in\n    tag_149:\n        /* \"#utility.yul\":1735:1957   */\n      swap3\n      swap2\n      pop\n      pop\n      jump\t// out\n        /* \"#utility.yul\":1963:2085   */\n    tag_106:\n        /* \"#utility.yul\":2036:2060   */\n      tag_151\n        /* \"#utility.yul\":2054:2059   */\n      dup2\n        /* \"#utility.yul\":2036:2060   */\n      tag_103\n      jump\t// in\n    tag_151:\n        /* \"#utility.yul\":2029:2034   */\n      dup2\n        /* \"#utility.yul\":2026:2061   */\n      eq\n        /* \"#utility.yul\":2016:2079   */\n      tag_152\n      jumpi\n        /* \"#utility.yul\":2075:2076   */\n      0x00\n        /* \"#utility.yul\":2072:2073   */\n      dup1\n        /* \"#utility.yul\":2065:2077   */\n      revert\n        /* \"#utility.yul\":2016:2079   */\n    tag_152:\n        /* \"#utility.yul\":1963:2085   */\n      pop\n      jump\t// out\n        /* \"#utility.yul\":2091:2230   */\n    tag_107:\n        /* \"#utility.yul\":2137:2142   */\n      0x00\n        /* \"#utility.yul\":2175:2181   */\n      dup2\n        /* \"#utility.yul\":2162:2182   */\n      calldataload\n        /* \"#utility.yul\":2153:2182   */\n      swap1\n      pop\n        /* \"#utility.yul\":2191:2224   */\n      tag_154\n        /* \"#utility.yul\":2218:2223   */\n      dup2\n        /* \"#utility.yul\":2191:2224   */\n      tag_106\n      jump\t// in\n    tag_154:\n        /* \"#utility.yul\":2091:2230   */\n      swap3\n      swap2\n      pop\n      pop\n      jump\t// out\n        /* \"#utility.yul\":2236:2565   */\n    tag_39:\n        /* \"#utility.yul\":2295:2301   */\n      0x00\n        /* \"#utility.yul\":2344:2346   */\n      0x20\n        /* \"#utility.yul\":2332:2341   */\n      dup3\n        /* \"#utility.yul\":2323:2330   */\n      dup5\n        /* \"#utility.yul\":2319:2342   */\n      sub\n        /* \"#utility.yul\":2315:2347   */\n      slt\n        /* \"#utility.yul\":2312:2431   */\n      iszero\n      tag_156\n      jumpi\n        /* \"#utility.yul\":2350:2429   */\n      tag_157\n      tag_97\n      jump\t// in\n    tag_157:\n        /* \"#utility.yul\":2312:2431   */\n    tag_156:\n        /* \"#utility.yul\":2470:2471   */\n      0x00\n        /* \"#utility.yul\":2495:2548   */\n      tag_158\n        /* \"#utility.yul\":2540:2547   */\n      dup5\n        /* \"#utility.yul\":2531:2537   */\n      dup3\n        /* \"#utility.yul\":2520:2529   */\n      dup6\n        /* \"#utility.yul\":2516:2538   */\n      add\n        /* \"#utility.yul\":2495:2548   */\n      tag_107\n      jump\t// in\n    tag_158:\n        /* \"#utility.yul\":2485:2548   */\n      swap2\n      pop\n        /* \"#utility.yul\":2441:2558   */\n      pop\n        /* \"#utility.yul\":2236:2565   */\n      swap3\n      swap2\n      pop\n      pop\n      jump\t// out\n        /* \"#utility.yul\":2571:2740   */\n    tag_108:\n        /* \"#utility.yul\":2655:2666   */\n      0x00\n        /* \"#utility.yul\":2689:2695   */\n      dup3\n        /* \"#utility.yul\":2684:2687   */\n      dup3\n        /* \"#utility.yul\":2677:2696   */\n      mstore\n        /* \"#utility.yul\":2729:2733   */\n      0x20\n        /* \"#utility.yul\":2724:2727   */\n      dup3\n        /* \"#utility.yul\":2720:2734   */\n      add\n        /* \"#utility.yul\":2705:2734   */\n      swap1\n      pop\n        /* \"#utility.yul\":2571:2740   */\n      swap3\n      swap2\n      pop\n      pop\n      jump\t// out\n        /* \"#utility.yul\":2746:2922   */\n    tag_109:\n        /* \"#utility.yul\":2886:2914   */\n      0x446f6e2774206861766520656e6f7567682042616c616e63652c000000000000\n        /* \"#utility.yul\":2882:2883   */\n      0x00\n        /* \"#utility.yul\":2874:2880   */\n      dup3\n        /* \"#utility.yul\":2870:2884   */\n      add\n        /* \"#utility.yul\":2863:2915   */\n      mstore\n        /* \"#utility.yul\":2746:2922   */\n      pop\n      jump\t// out\n        /* \"#utility.yul\":2928:3294   */\n    tag_110:\n        /* \"#utility.yul\":3070:3073   */\n      0x00\n        /* \"#utility.yul\":3091:3158   */\n      tag_162\n        /* \"#utility.yul\":3155:3157   */\n      0x1a\n        /* \"#utility.yul\":3150:3153   */\n      dup4\n        /* \"#utility.yul\":3091:3158   */\n      tag_108\n      jump\t// in\n    tag_162:\n        /* \"#utility.yul\":3084:3158   */\n      swap2\n      pop\n        /* \"#utility.yul\":3167:3260   */\n      tag_163\n        /* \"#utility.yul\":3256:3259   */\n      dup3\n        /* \"#utility.yul\":3167:3260   */\n      tag_109\n      jump\t// in\n    tag_163:\n        /* \"#utility.yul\":3285:3287   */\n      0x20\n        /* \"#utility.yul\":3280:3283   */\n      dup3\n        /* \"#utility.yul\":3276:3288   */\n      add\n        /* \"#utility.yul\":3269:3288   */\n      swap1\n      pop\n        /* \"#utility.yul\":2928:3294   */\n      swap2\n      swap1\n      pop\n      jump\t// out\n        /* \"#utility.yul\":3300:3719   */\n    tag_47:\n        /* \"#utility.yul\":3466:3470   */\n      0x00\n        /* \"#utility.yul\":3504:3506   */\n      0x20\n        /* \"#utility.yul\":3493:3502   */\n      dup3\n        /* \"#utility.yul\":3489:3507   */\n      add\n        /* \"#utility.yul\":3481:3507   */\n      swap1\n      pop\n        /* \"#utility.yul\":3553:3562   */\n      dup2\n        /* \"#utility.yul\":3547:3551   */\n      dup2\n        /* \"#utility.yul\":3543:3563   */\n      sub\n        /* \"#utility.yul\":3539:3540   */\n      0x00\n        /* \"#utility.yul\":3528:3537   */\n      dup4\n        /* \"#utility.yul\":3524:3541   */\n      add\n        /* \"#utility.yul\":3517:3564   */\n      mstore\n        /* \"#utility.yul\":3581:3712   */\n      tag_165\n        /* \"#utility.yul\":3707:3711   */\n      dup2\n        /* \"#utility.yul\":3581:3712   */\n      tag_110\n      jump\t// in\n    tag_165:\n        /* \"#utility.yul\":3573:3712   */\n      swap1\n      pop\n        /* \"#utility.yul\":3300:3719   */\n      swap2\n      swap1\n      pop\n      jump\t// out\n        /* \"#utility.yul\":3725:3905   */\n    tag_57:\n        /* \"#utility.yul\":3773:3850   */\n      0x4e487b7100000000000000000000000000000000000000000000000000000000\n        /* \"#utility.yul\":3770:3771   */\n      0x00\n        /* \"#utility.yul\":3763:3851   */\n      mstore\n        /* \"#utility.yul\":3870:3874   */\n      0x32\n        /* \"#utility.yul\":3867:3868   */\n      0x04\n        /* \"#utility.yul\":3860:3875   */\n      mstore\n        /* \"#utility.yul\":3894:3898   */\n      0x24\n        /* \"#utility.yul\":3891:3892   */\n      0x00\n        /* \"#utility.yul\":3884:3899   */\n      revert\n        /* \"#utility.yul\":3911:4091   */\n    tag_61:\n        /* \"#utility.yul\":3959:4036   */\n      0x4e487b7100000000000000000000000000000000000000000000000000000000\n        /* \"#utility.yul\":3956:3957   */\n      0x00\n        /* \"#utility.yul\":3949:4037   */\n      mstore\n        /* \"#utility.yul\":4056:4060   */\n      0x41\n        /* \"#utility.yul\":4053:4054   */\n      0x04\n        /* \"#utility.yul\":4046:4061   */\n      mstore\n        /* \"#utility.yul\":4080:4084   */\n      0x24\n        /* \"#utility.yul\":4077:4078   */\n      0x00\n        /* \"#utility.yul\":4070:4085   */\n      revert\n        /* \"#utility.yul\":4097:4244   */\n    tag_111:\n        /* \"#utility.yul\":4198:4209   */\n      0x00\n        /* \"#utility.yul\":4235:4238   */\n      dup2\n        /* \"#utility.yul\":4220:4238   */\n      swap1\n      pop\n        /* \"#utility.yul\":4097:4244   */\n      swap3\n      swap2\n      pop\n      pop\n      jump\t// out\n        /* \"#utility.yul\":4250:4364   */\n    tag_112:\n      pop\n      jump\t// out\n        /* \"#utility.yul\":4370:4768   */\n    tag_113:\n        /* \"#utility.yul\":4529:4532   */\n      0x00\n        /* \"#utility.yul\":4550:4633   */\n      tag_171\n        /* \"#utility.yul\":4631:4632   */\n      0x00\n        /* \"#utility.yul\":4626:4629   */\n      dup4\n        /* \"#utility.yul\":4550:4633   */\n      tag_111\n      jump\t// in\n    tag_171:\n        /* \"#utility.yul\":4543:4633   */\n      swap2\n      pop\n        /* \"#utility.yul\":4642:4735   */\n      tag_172\n        /* \"#utility.yul\":4731:4734   */\n      dup3\n        /* \"#utility.yul\":4642:4735   */\n      tag_112\n      jump\t// in\n    tag_172:\n        /* \"#utility.yul\":4760:4761   */\n      0x00\n        /* \"#utility.yul\":4755:4758   */\n      dup3\n        /* \"#utility.yul\":4751:4762   */\n      add\n        /* \"#utility.yul\":4744:4762   */\n      swap1\n      pop\n        /* \"#utility.yul\":4370:4768   */\n      swap2\n      swap1\n      pop\n      jump\t// out\n        /* \"#utility.yul\":4774:5153   */\n    tag_66:\n        /* \"#utility.yul\":4958:4961   */\n      0x00\n        /* \"#utility.yul\":4980:5127   */\n      tag_174\n        /* \"#utility.yul\":5123:5126   */\n      dup3\n        /* \"#utility.yul\":4980:5127   */\n      tag_113\n      jump\t// in\n    tag_174:\n        /* \"#utility.yul\":4973:5127   */\n      swap2\n      pop\n        /* \"#utility.yul\":5144:5147   */\n      dup2\n        /* \"#utility.yul\":5137:5147   */\n      swap1\n      pop\n        /* \"#utility.yul\":4774:5153   */\n      swap2\n      swap1\n      pop\n      jump\t// out\n        /* \"#utility.yul\":5159:5320   */\n    tag_114:\n        /* \"#utility.yul\":5299:5312   */\n      0x43616c6c204661696c6564000000000000000000000000000000000000000000\n        /* \"#utility.yul\":5295:5296   */\n      0x00\n        /* \"#utility.yul\":5287:5293   */\n      dup3\n        /* \"#utility.yul\":5283:5297   */\n      add\n        /* \"#utility.yul\":5276:5313   */\n      mstore\n        /* \"#utility.yul\":5159:5320   */\n      pop\n      jump\t// out\n        /* \"#utility.yul\":5326:5692   */\n    tag_115:\n        /* \"#utility.yul\":5468:5471   */\n      0x00\n        /* \"#utility.yul\":5489:5556   */\n      tag_177\n        /* \"#utility.yul\":5553:5555   */\n      0x0b\n        /* \"#utility.yul\":5548:5551   */\n      dup4\n        /* \"#utility.yul\":5489:5556   */\n      tag_108\n      jump\t// in\n    tag_177:\n        /* \"#utility.yul\":5482:5556   */\n      swap2\n      pop\n        /* \"#utility.yul\":5565:5658   */\n      tag_178\n        /* \"#utility.yul\":5654:5657   */\n      dup3\n        /* \"#utility.yul\":5565:5658   */\n      tag_114\n      jump\t// in\n    tag_178:\n        /* \"#utility.yul\":5683:5685   */\n      0x20\n        /* \"#utility.yul\":5678:5681   */\n      dup3\n        /* \"#utility.yul\":5674:5686   */\n      add\n        /* \"#utility.yul\":5667:5686   */\n      swap1\n      pop\n        /* \"#utility.yul\":5326:5692   */\n      swap2\n      swap1\n      pop\n      jump\t// out\n        /* \"#utility.yul\":5698:6117   */\n    tag_72:\n        /* \"#utility.yul\":5864:5868   */\n      0x00\n        /* \"#utility.yul\":5902:5904   */\n      0x20\n        /* \"#utility.yul\":5891:5900   */\n      dup3\n        /* \"#utility.yul\":5887:5905   */\n      add\n        /* \"#utility.yul\":5879:5905   */\n      swap1\n      pop\n        /* \"#utility.yul\":5951:5960   */\n      dup2\n        /* \"#utility.yul\":5945:5949   */\n      dup2\n        /* \"#utility.yul\":5941:5961   */\n      sub\n        /* \"#utility.yul\":5937:5938   */\n      0x00\n        /* \"#utility.yul\":5926:5935   */\n      dup4\n        /* \"#utility.yul\":5922:5939   */\n      add\n        /* \"#utility.yul\":5915:5962   */\n      mstore\n        /* \"#utility.yul\":5979:6110   */\n      tag_180\n        /* \"#utility.yul\":6105:6109   */\n      dup2\n        /* \"#utility.yul\":5979:6110   */\n      tag_115\n      jump\t// in\n    tag_180:\n        /* \"#utility.yul\":5971:6110   */\n      swap1\n      pop\n        /* \"#utility.yul\":5698:6117   */\n      swap2\n      swap1\n      pop\n      jump\t// out\n        /* \"#utility.yul\":6123:6303   */\n    tag_116:\n        /* \"#utility.yul\":6171:6248   */\n      0x4e487b7100000000000000000000000000000000000000000000000000000000\n        /* \"#utility.yul\":6168:6169   */\n      0x00\n        /* \"#utility.yul\":6161:6249   */\n      mstore\n        /* \"#utility.yul\":6268:6272   */\n      0x11\n        /* \"#utility.yul\":6265:6266   */\n      0x04\n        /* \"#utility.yul\":6258:6273   */\n      mstore\n        /* \"#utility.yul\":6292:6296   */\n      0x24\n        /* \"#utility.yul\":6289:6290   */\n      0x00\n        /* \"#utility.yul\":6282:6297   */\n      revert\n        /* \"#utility.yul\":6309:6719   */\n    tag_79:\n        /* \"#utility.yul\":6349:6356   */\n      0x00\n        /* \"#utility.yul\":6372:6392   */\n      tag_183\n        /* \"#utility.yul\":6390:6391   */\n      dup3\n        /* \"#utility.yul\":6372:6392   */\n      tag_103\n      jump\t// in\n    tag_183:\n        /* \"#utility.yul\":6367:6392   */\n      swap2\n      pop\n        /* \"#utility.yul\":6406:6426   */\n      tag_184\n        /* \"#utility.yul\":6424:6425   */\n      dup4\n        /* \"#utility.yul\":6406:6426   */\n      tag_103\n      jump\t// in\n    tag_184:\n        /* \"#utility.yul\":6401:6426   */\n      swap3\n      pop\n        /* \"#utility.yul\":6461:6462   */\n      dup3\n        /* \"#utility.yul\":6458:6459   */\n      dup3\n        /* \"#utility.yul\":6454:6463   */\n      mul\n        /* \"#utility.yul\":6483:6513   */\n      tag_185\n        /* \"#utility.yul\":6501:6512   */\n      dup2\n        /* \"#utility.yul\":6483:6513   */\n      tag_103\n      jump\t// in\n    tag_185:\n        /* \"#utility.yul\":6472:6513   */\n      swap2\n      pop\n        /* \"#utility.yul\":6662:6663   */\n      dup3\n        /* \"#utility.yul\":6653:6660   */\n      dup3\n        /* \"#utility.yul\":6649:6664   */\n      div\n        /* \"#utility.yul\":6646:6647   */\n      dup5\n        /* \"#utility.yul\":6643:6665   */\n      eq\n        /* \"#utility.yul\":6623:6624   */\n      dup4\n        /* \"#utility.yul\":6616:6625   */\n      iszero\n        /* \"#utility.yul\":6596:6679   */\n      or\n        /* \"#utility.yul\":6573:6712   */\n      tag_186\n      jumpi\n        /* \"#utility.yul\":6692:6710   */\n      tag_187\n      tag_116\n      jump\t// in\n    tag_187:\n        /* \"#utility.yul\":6573:6712   */\n    tag_186:\n        /* \"#utility.yul\":6357:6719   */\n      pop\n        /* \"#utility.yul\":6309:6719   */\n      swap3\n      swap2\n      pop\n      pop\n      jump\t// out\n        /* \"#utility.yul\":6725:6905   */\n    tag_117:\n        /* \"#utility.yul\":6773:6850   */\n      0x4e487b7100000000000000000000000000000000000000000000000000000000\n        /* \"#utility.yul\":6770:6771   */\n      0x00\n        /* \"#utility.yul\":6763:6851   */\n      mstore\n        /* \"#utility.yul\":6870:6874   */\n      0x12\n        /* \"#utility.yul\":6867:6868   */\n      0x04\n        /* \"#utility.yul\":6860:6875   */\n      mstore\n        /* \"#utility.yul\":6894:6898   */\n      0x24\n        /* \"#utility.yul\":6891:6892   */\n      0x00\n        /* \"#utility.yul\":6884:6899   */\n      revert\n        /* \"#utility.yul\":6911:7096   */\n    tag_81:\n        /* \"#utility.yul\":6951:6952   */\n      0x00\n        /* \"#utility.yul\":6968:6988   */\n      tag_190\n        /* \"#utility.yul\":6986:6987   */\n      dup3\n        /* \"#utility.yul\":6968:6988   */\n      tag_103\n      jump\t// in\n    tag_190:\n        /* \"#utility.yul\":6963:6988   */\n      swap2\n      pop\n        /* \"#utility.yul\":7002:7022   */\n      tag_191\n        /* \"#utility.yul\":7020:7021   */\n      dup4\n        /* \"#utility.yul\":7002:7022   */\n      tag_103\n      jump\t// in\n    tag_191:\n        /* \"#utility.yul\":6997:7022   */\n      swap3\n      pop\n        /* \"#utility.yul\":7041:7042   */\n      dup3\n        /* \"#utility.yul\":7031:7066   */\n      tag_192\n      jumpi\n        /* \"#utility.yul\":7046:7064   */\n      tag_193\n      tag_117\n      jump\t// in\n    tag_193:\n        /* \"#utility.yul\":7031:7066   */\n    tag_192:\n        /* \"#utility.yul\":7088:7089   */\n      dup3\n        /* \"#utility.yul\":7085:7086   */\n      dup3\n        /* \"#utility.yul\":7081:7090   */\n      div\n        /* \"#utility.yul\":7076:7090   */\n      swap1\n      pop\n        /* \"#utility.yul\":6911:7096   */\n      swap3\n      swap2\n      pop\n      pop\n      jump\t// out\n        /* \"#utility.yul\":7102:7207   */\n    tag_118:\n        /* \"#utility.yul\":7138:7145   */\n      0x00\n        /* \"#utility.yul\":7178:7200   */\n      0xffffffffffffffffffff\n        /* \"#utility.yul\":7171:7176   */\n      dup3\n        /* \"#utility.yul\":7167:7201   */\n      and\n        /* \"#utility.yul\":7156:7201   */\n      swap1\n      pop\n        /* \"#utility.yul\":7102:7207   */\n      swap2\n      swap1\n      pop\n      jump\t// out\n        /* \"#utility.yul\":7213:7333   */\n    tag_119:\n        /* \"#utility.yul\":7285:7308   */\n      tag_196\n        /* \"#utility.yul\":7302:7307   */\n      dup2\n        /* \"#utility.yul\":7285:7308   */\n      tag_118\n      jump\t// in\n    tag_196:\n        /* \"#utility.yul\":7278:7283   */\n      dup2\n        /* \"#utility.yul\":7275:7309   */\n      eq\n        /* \"#utility.yul\":7265:7327   */\n      tag_197\n      jumpi\n        /* \"#utility.yul\":7323:7324   */\n      0x00\n        /* \"#utility.yul\":7320:7321   */\n      dup1\n        /* \"#utility.yul\":7313:7325   */\n      revert\n        /* \"#utility.yul\":7265:7327   */\n    tag_197:\n        /* \"#utility.yul\":7213:7333   */\n      pop\n      jump\t// out\n        /* \"#utility.yul\":7339:7480   */\n    tag_120:\n        /* \"#utility.yul\":7395:7400   */\n      0x00\n        /* \"#utility.yul\":7426:7432   */\n      dup2\n        /* \"#utility.yul\":7420:7433   */\n      mload\n        /* \"#utility.yul\":7411:7433   */\n      swap1\n      pop\n        /* \"#utility.yul\":7442:7474   */\n      tag_199\n        /* \"#utility.yul\":7468:7473   */\n      dup2\n        /* \"#utility.yul\":7442:7474   */\n      tag_119\n      jump\t// in\n    tag_199:\n        /* \"#utility.yul\":7339:7480   */\n      swap3\n      swap2\n      pop\n      pop\n      jump\t// out\n        /* \"#utility.yul\":7486:7562   */\n    tag_121:\n        /* \"#utility.yul\":7522:7529   */\n      0x00\n        /* \"#utility.yul\":7551:7556   */\n      dup2\n        /* \"#utility.yul\":7540:7556   */\n      swap1\n      pop\n        /* \"#utility.yul\":7486:7562   */\n      swap2\n      swap1\n      pop\n      jump\t// out\n        /* \"#utility.yul\":7568:7688   */\n    tag_122:\n        /* \"#utility.yul\":7640:7663   */\n      tag_202\n        /* \"#utility.yul\":7657:7662   */\n      dup2\n        /* \"#utility.yul\":7640:7663   */\n      tag_121\n      jump\t// in\n    tag_202:\n        /* \"#utility.yul\":7633:7638   */\n      dup2\n        /* \"#utility.yul\":7630:7664   */\n      eq\n        /* \"#utility.yul\":7620:7682   */\n      tag_203\n      jumpi\n        /* \"#utility.yul\":7678:7679   */\n      0x00\n        /* \"#utility.yul\":7675:7676   */\n      dup1\n        /* \"#utility.yul\":7668:7680   */\n      revert\n        /* \"#utility.yul\":7620:7682   */\n    tag_203:\n        /* \"#utility.yul\":7568:7688   */\n      pop\n      jump\t// out\n        /* \"#utility.yul\":7694:7835   */\n    tag_123:\n        /* \"#utility.yul\":7750:7755   */\n      0x00\n        /* \"#utility.yul\":7781:7787   */\n      dup2\n        /* \"#utility.yul\":7775:7788   */\n      mload\n        /* \"#utility.yul\":7766:7788   */\n      swap1\n      pop\n        /* \"#utility.yul\":7797:7829   */\n      tag_205\n        /* \"#utility.yul\":7823:7828   */\n      dup2\n        /* \"#utility.yul\":7797:7829   */\n      tag_122\n      jump\t// in\n    tag_205:\n        /* \"#utility.yul\":7694:7835   */\n      swap3\n      swap2\n      pop\n      pop\n      jump\t// out\n        /* \"#utility.yul\":7841:7984   */\n    tag_124:\n        /* \"#utility.yul\":7898:7903   */\n      0x00\n        /* \"#utility.yul\":7929:7935   */\n      dup2\n        /* \"#utility.yul\":7923:7936   */\n      mload\n        /* \"#utility.yul\":7914:7936   */\n      swap1\n      pop\n        /* \"#utility.yul\":7945:7978   */\n      tag_207\n        /* \"#utility.yul\":7972:7977   */\n      dup2\n        /* \"#utility.yul\":7945:7978   */\n      tag_106\n      jump\t// in\n    tag_207:\n        /* \"#utility.yul\":7841:7984   */\n      swap3\n      swap2\n      pop\n      pop\n      jump\t// out\n        /* \"#utility.yul\":7990:8961   */\n    tag_86:\n        /* \"#utility.yul\":8093:8099   */\n      0x00\n        /* \"#utility.yul\":8101:8107   */\n      dup1\n        /* \"#utility.yul\":8109:8115   */\n      0x00\n        /* \"#utility.yul\":8117:8123   */\n      dup1\n        /* \"#utility.yul\":8125:8131   */\n      0x00\n        /* \"#utility.yul\":8174:8177   */\n      0xa0\n        /* \"#utility.yul\":8162:8171   */\n      dup7\n        /* \"#utility.yul\":8153:8160   */\n      dup9\n        /* \"#utility.yul\":8149:8172   */\n      sub\n        /* \"#utility.yul\":8145:8178   */\n      slt\n        /* \"#utility.yul\":8142:8262   */\n      iszero\n      tag_209\n      jumpi\n        /* \"#utility.yul\":8181:8260   */\n      tag_210\n      tag_97\n      jump\t// in\n    tag_210:\n        /* \"#utility.yul\":8142:8262   */\n    tag_209:\n        /* \"#utility.yul\":8301:8302   */\n      0x00\n        /* \"#utility.yul\":8326:8389   */\n      tag_211\n        /* \"#utility.yul\":8381:8388   */\n      dup9\n        /* \"#utility.yul\":8372:8378   */\n      dup3\n        /* \"#utility.yul\":8361:8370   */\n      dup10\n        /* \"#utility.yul\":8357:8379   */\n      add\n        /* \"#utility.yul\":8326:8389   */\n      tag_120\n      jump\t// in\n    tag_211:\n        /* \"#utility.yul\":8316:8389   */\n      swap6\n      pop\n        /* \"#utility.yul\":8272:8399   */\n      pop\n        /* \"#utility.yul\":8438:8440   */\n      0x20\n        /* \"#utility.yul\":8464:8527   */\n      tag_212\n        /* \"#utility.yul\":8519:8526   */\n      dup9\n        /* \"#utility.yul\":8510:8516   */\n      dup3\n        /* \"#utility.yul\":8499:8508   */\n      dup10\n        /* \"#utility.yul\":8495:8517   */\n      add\n        /* \"#utility.yul\":8464:8527   */\n      tag_123\n      jump\t// in\n    tag_212:\n        /* \"#utility.yul\":8454:8527   */\n      swap5\n      pop\n        /* \"#utility.yul\":8409:8537   */\n      pop\n        /* \"#utility.yul\":8576:8578   */\n      0x40\n        /* \"#utility.yul\":8602:8666   */\n      tag_213\n        /* \"#utility.yul\":8658:8665   */\n      dup9\n        /* \"#utility.yul\":8649:8655   */\n      dup3\n        /* \"#utility.yul\":8638:8647   */\n      dup10\n        /* \"#utility.yul\":8634:8656   */\n      add\n        /* \"#utility.yul\":8602:8666   */\n      tag_124\n      jump\t// in\n    tag_213:\n        /* \"#utility.yul\":8592:8666   */\n      swap4\n      pop\n        /* \"#utility.yul\":8547:8676   */\n      pop\n        /* \"#utility.yul\":8715:8717   */\n      0x60\n        /* \"#utility.yul\":8741:8805   */\n      tag_214\n        /* \"#utility.yul\":8797:8804   */\n      dup9\n        /* \"#utility.yul\":8788:8794   */\n      dup3\n        /* \"#utility.yul\":8777:8786   */\n      dup10\n        /* \"#utility.yul\":8773:8795   */\n      add\n        /* \"#utility.yul\":8741:8805   */\n      tag_124\n      jump\t// in\n    tag_214:\n        /* \"#utility.yul\":8731:8805   */\n      swap3\n      pop\n        /* \"#utility.yul\":8686:8815   */\n      pop\n        /* \"#utility.yul\":8854:8857   */\n      0x80\n        /* \"#utility.yul\":8881:8944   */\n      tag_215\n        /* \"#utility.yul\":8936:8943   */\n      dup9\n        /* \"#utility.yul\":8927:8933   */\n      dup3\n        /* \"#utility.yul\":8916:8925   */\n      dup10\n        /* \"#utility.yul\":8912:8934   */\n      add\n        /* \"#utility.yul\":8881:8944   */\n      tag_120\n      jump\t// in\n    tag_215:\n        /* \"#utility.yul\":8871:8944   */\n      swap2\n      pop\n        /* \"#utility.yul\":8825:8954   */\n      pop\n        /* \"#utility.yul\":7990:8961   */\n      swap3\n      swap6\n      pop\n      swap3\n      swap6\n      swap1\n      swap4\n      pop\n      jump\t// out\n        /* \"#utility.yul\":8967:9523   */\n    tag_88:\n        /* \"#utility.yul\":9006:9013   */\n      0x00\n        /* \"#utility.yul\":9029:9048   */\n      tag_217\n        /* \"#utility.yul\":9046:9047   */\n      dup3\n        /* \"#utility.yul\":9029:9048   */\n      tag_121\n      jump\t// in\n    tag_217:\n        /* \"#utility.yul\":9024:9048   */\n      swap2\n      pop\n        /* \"#utility.yul\":9062:9081   */\n      tag_218\n        /* \"#utility.yul\":9079:9080   */\n      dup4\n        /* \"#utility.yul\":9062:9081   */\n      tag_121\n      jump\t// in\n    tag_218:\n        /* \"#utility.yul\":9057:9081   */\n      swap3\n      pop\n        /* \"#utility.yul\":9116:9117   */\n      dup3\n        /* \"#utility.yul\":9113:9114   */\n      dup3\n        /* \"#utility.yul\":9109:9118   */\n      mul\n        /* \"#utility.yul\":9138:9167   */\n      tag_219\n        /* \"#utility.yul\":9155:9166   */\n      dup2\n        /* \"#utility.yul\":9138:9167   */\n      tag_121\n      jump\t// in\n    tag_219:\n        /* \"#utility.yul\":9127:9167   */\n      swap2\n      pop\n        /* \"#utility.yul\":9225:9291   */\n      0x8000000000000000000000000000000000000000000000000000000000000000\n        /* \"#utility.yul\":9222:9223   */\n      dup5\n        /* \"#utility.yul\":9219:9292   */\n      eq\n        /* \"#utility.yul\":9215:9216   */\n      0x00\n        /* \"#utility.yul\":9212:9213   */\n      dup5\n        /* \"#utility.yul\":9208:9217   */\n      slt\n        /* \"#utility.yul\":9204:9293   */\n      and\n        /* \"#utility.yul\":9201:9316   */\n      iszero\n      tag_220\n      jumpi\n        /* \"#utility.yul\":9296:9314   */\n      tag_221\n      tag_116\n      jump\t// in\n    tag_221:\n        /* \"#utility.yul\":9201:9316   */\n    tag_220:\n        /* \"#utility.yul\":9466:9467   */\n      dup3\n        /* \"#utility.yul\":9457:9464   */\n      dup3\n        /* \"#utility.yul\":9452:9468   */\n      sdiv\n        /* \"#utility.yul\":9449:9450   */\n      dup5\n        /* \"#utility.yul\":9446:9469   */\n      eq\n        /* \"#utility.yul\":9426:9427   */\n      dup4\n        /* \"#utility.yul\":9419:9428   */\n      iszero\n        /* \"#utility.yul\":9399:9483   */\n      or\n        /* \"#utility.yul\":9376:9516   */\n      tag_222\n      jumpi\n        /* \"#utility.yul\":9496:9514   */\n      tag_223\n      tag_116\n      jump\t// in\n    tag_223:\n        /* \"#utility.yul\":9376:9516   */\n    tag_222:\n        /* \"#utility.yul\":9014:9523   */\n      pop\n        /* \"#utility.yul\":8967:9523   */\n      swap3\n      swap2\n      pop\n      pop\n      jump\t// out\n\n    auxdata: 0xa2646970667358221220cb8f47813fc18618bb4c59dd3d87e188bb86308813f7576cd8b724d613cb85f064736f6c63430008160033\n}\n",
				"bytecode": {
					"linkReferences": {},
					"object": "608060405234801561000f575f80fd5b50335f806101000a81548173ffffffffffffffffffffffffffffffffffffffff021916908373ffffffffffffffffffffffffffffffffffffffff160217905550610bc78061005c5f395ff3fe608060405260043610610058575f3560e01c80633c7e7d28146100715780633ccfd60b146100ad5780636b69a592146100c3578063b60d4288146100ed578063dba6335f146100f7578063dc0d3dff1461012157610067565b366100675761006561015d565b005b61006f61015d565b005b34801561007c575f80fd5b50610097600480360381019061009291906106ff565b610255565b6040516100a49190610742565b60405180910390f35b3480156100b8575f80fd5b506100c161026a565b005b3480156100ce575f80fd5b506100d76104b7565b6040516100e49190610742565b60405180910390f35b6100f561015d565b005b348015610102575f80fd5b5061010b6104c4565b604051610118919061076a565b60405180910390f35b34801561012c575f80fd5b50610147600480360381019061014291906107ad565b6104e7565b604051610154919061076a565b60405180910390f35b6802b5e3af16b188000061017034610522565b10156101b1576040517f08c379a00000000000000000000000000000000000000000000000000000000081526004016101a890610832565b60405180910390fd5b600133908060018154018082558091505060019003905f5260205f20015f9091909190916101000a81548173ffffffffffffffffffffffffffffffffffffffff021916908373ffffffffffffffffffffffffffffffffffffffff1602179055503460025f3373ffffffffffffffffffffffffffffffffffffffff1673ffffffffffffffffffffffffffffffffffffffff1681526020019081526020015f2081905550565b6002602052805f5260405f205f915090505481565b5f8054906101000a900473ffffffffffffffffffffffffffffffffffffffff1673ffffffffffffffffffffffffffffffffffffffff163373ffffffffffffffffffffffffffffffffffffffff16146102ee576040517f30cd747100000000000000000000000000000000000000000000000000000000815260040160405180910390fd5b5f5b60018054905081101561038c575f6001828154811061031257610311610850565b5b905f5260205f20015f9054906101000a900473ffffffffffffffffffffffffffffffffffffffff1690505f60025f8373ffffffffffffffffffffffffffffffffffffffff1673ffffffffffffffffffffffffffffffffffffffff1681526020019081526020015f20819055505080806001019150506102f0565b505f67ffffffffffffffff8111156103a7576103a661087d565b5b6040519080825280602002602001820160405280156103d55781602001602082028036833780820191505090505b50600190805190602001906103eb9291906105ff565b505f805f9054906101000a900473ffffffffffffffffffffffffffffffffffffffff1673ffffffffffffffffffffffffffffffffffffffff1647604051610431906108d7565b5f6040518083038185875af1925050503d805f811461046b576040519150601f19603f3d011682016040523d82523d5f602084013e610470565b606091505b50509050806104b4576040517f08c379a00000000000000000000000000000000000000000000000000000000081526004016104ab90610935565b60405180910390fd5b50565b6802b5e3af16b188000081565b5f8054906101000a900473ffffffffffffffffffffffffffffffffffffffff1681565b600181815481106104f6575f80fd5b905f5260205f20015f915054906101000a900473ffffffffffffffffffffffffffffffffffffffff1681565b5f8061052c61055a565b90505f670de0b6b3a764000084836105449190610980565b61054e91906109ee565b90508092505050919050565b5f8073694aa1769357215de4fac081bf1f309adc32530690505f8173ffffffffffffffffffffffffffffffffffffffff1663feaf968c6040518163ffffffff1660e01b815260040160a060405180830381865afa1580156105bd573d5f803e3d5ffd5b505050506040513d601f19601f820116820180604052508101906105e19190610aa4565b5050509150506402540be400816105f89190610b1b565b9250505090565b828054828255905f5260205f20908101928215610675579160200282015b82811115610674578251825f6101000a81548173ffffffffffffffffffffffffffffffffffffffff021916908373ffffffffffffffffffffffffffffffffffffffff1602179055509160200191906001019061061d565b5b5090506106829190610686565b5090565b5b8082111561069d575f815f905550600101610687565b5090565b5f80fd5b5f73ffffffffffffffffffffffffffffffffffffffff82169050919050565b5f6106ce826106a5565b9050919050565b6106de816106c4565b81146106e8575f80fd5b50565b5f813590506106f9816106d5565b92915050565b5f60208284031215610714576107136106a1565b5b5f610721848285016106eb565b91505092915050565b5f819050919050565b61073c8161072a565b82525050565b5f6020820190506107555f830184610733565b92915050565b610764816106c4565b82525050565b5f60208201905061077d5f83018461075b565b92915050565b61078c8161072a565b8114610796575f80fd5b50565b5f813590506107a781610783565b92915050565b5f602082840312156107c2576107c16106a1565b5b5f6107cf84828501610799565b91505092915050565b5f82825260208201905092915050565b7f446f6e2774206861766520656e6f7567682042616c616e63652c0000000000005f82015250565b5f61081c601a836107d8565b9150610827826107e8565b602082019050919050565b5f6020820190508181035f83015261084981610810565b9050919050565b7f4e487b71000000000000000000000000000000000000000000000000000000005f52603260045260245ffd5b7f4e487b71000000000000000000000000000000000000000000000000000000005f52604160045260245ffd5b5f81905092915050565b50565b5f6108c25f836108aa565b91506108cd826108b4565b5f82019050919050565b5f6108e1826108b7565b9150819050919050565b7f43616c6c204661696c65640000000000000000000000000000000000000000005f82015250565b5f61091f600b836107d8565b915061092a826108eb565b602082019050919050565b5f6020820190508181035f83015261094c81610913565b9050919050565b7f4e487b71000000000000000000000000000000000000000000000000000000005f52601160045260245ffd5b5f61098a8261072a565b91506109958361072a565b92508282026109a38161072a565b915082820484148315176109ba576109b9610953565b5b5092915050565b7f4e487b71000000000000000000000000000000000000000000000000000000005f52601260045260245ffd5b5f6109f88261072a565b9150610a038361072a565b925082610a1357610a126109c1565b5b828204905092915050565b5f69ffffffffffffffffffff82169050919050565b610a3c81610a1e565b8114610a46575f80fd5b50565b5f81519050610a5781610a33565b92915050565b5f819050919050565b610a6f81610a5d565b8114610a79575f80fd5b50565b5f81519050610a8a81610a66565b92915050565b5f81519050610a9e81610783565b92915050565b5f805f805f60a08688031215610abd57610abc6106a1565b5b5f610aca88828901610a49565b9550506020610adb88828901610a7c565b9450506040610aec88828901610a90565b9350506060610afd88828901610a90565b9250506080610b0e88828901610a49565b9150509295509295909350565b5f610b2582610a5d565b9150610b3083610a5d565b9250828202610b3e81610a5d565b91507f800000000000000000000000000000000000000000000000000000000000000084145f84121615610b7557610b74610953565b5b8282058414831517610b8a57610b89610953565b5b509291505056fea2646970667358221220cb8f47813fc18618bb4c59dd3d87e188bb86308813f7576cd8b724d613cb85f064736f6c63430008160033",
					"opcodes": "PUSH1 0x80 PUSH1 0x40 MSTORE CALLVALUE DUP1 ISZERO PUSH2 0xF JUMPI PUSH0 DUP1 REVERT JUMPDEST POP CALLER PUSH0 DUP1 PUSH2 0x100 EXP DUP2 SLOAD DUP2 PUSH20 0xFFFFFFFFFFFFFFFFFFFFFFFFFFFFFFFFFFFFFFFF MUL NOT AND SWAP1 DUP4 PUSH20 0xFFFFFFFFFFFFFFFFFFFFFFFFFFFFFFFFFFFFFFFF AND MUL OR SWAP1 SSTORE POP PUSH2 0xBC7 DUP1 PUSH2 0x5C PUSH0 CODECOPY PUSH0 RETURN INVALID PUSH1 0x80 PUSH1 0x40 MSTORE PUSH1 0x4 CALLDATASIZE LT PUSH2 0x58 JUMPI PUSH0 CALLDATALOAD PUSH1 0xE0 SHR DUP1 PUSH4 0x3C7E7D28 EQ PUSH2 0x71 JUMPI DUP1 PUSH4 0x3CCFD60B EQ PUSH2 0xAD JUMPI DUP1 PUSH4 0x6B69A592 EQ PUSH2 0xC3 JUMPI DUP1 PUSH4 0xB60D4288 EQ PUSH2 0xED JUMPI DUP1 PUSH4 0xDBA6335F EQ PUSH2 0xF7 JUMPI DUP1 PUSH4 0xDC0D3DFF EQ PUSH2 0x121 JUMPI PUSH2 0x67 JUMP JUMPDEST CALLDATASIZE PUSH2 0x67 JUMPI PUSH2 0x65 PUSH2 0x15D JUMP JUMPDEST STOP JUMPDEST PUSH2 0x6F PUSH2 0x15D JUMP JUMPDEST STOP JUMPDEST CALLVALUE DUP1 ISZERO PUSH2 0x7C JUMPI PUSH0 DUP1 REVERT JUMPDEST POP PUSH2 0x97 PUSH1 0x4 DUP1 CALLDATASIZE SUB DUP2 ADD SWAP1 PUSH2 0x92 SWAP2 SWAP1 PUSH2 0x6FF JUMP JUMPDEST PUSH2 0x255 JUMP JUMPDEST PUSH1 0x40 MLOAD PUSH2 0xA4 SWAP2 SWAP1 PUSH2 0x742 JUMP JUMPDEST PUSH1 0x40 MLOAD DUP1 SWAP2 SUB SWAP1 RETURN JUMPDEST CALLVALUE DUP1 ISZERO PUSH2 0xB8 JUMPI PUSH0 DUP1 REVERT JUMPDEST POP PUSH2 0xC1 PUSH2 0x26A JUMP JUMPDEST STOP JUMPDEST CALLVALUE DUP1 ISZERO PUSH2 0xCE JUMPI PUSH0 DUP1 REVERT JUMPDEST POP PUSH2 0xD7 PUSH2 0x4B7 JUMP JUMPDEST PUSH1 0x40 MLOAD PUSH2 0xE4 SWAP2 SWAP1 PUSH2 0x742 JUMP JUMPDEST PUSH1 0x40 MLOAD DUP1 SWAP2 SUB SWAP1 RETURN JUMPDEST PUSH2 0xF5 PUSH2 0x15D JUMP JUMPDEST STOP JUMPDEST CALLVALUE DUP1 ISZERO PUSH2 0x102 JUMPI PUSH0 DUP1 REVERT JUMPDEST POP PUSH2 0x10B PUSH2 0x4C4 JUMP JUMPDEST PUSH1 0x40 MLOAD PUSH2 0x118 SWAP2 SWAP1 PUSH2 0x76A JUMP JUMPDEST PUSH1 0x40 MLOAD DUP1 SWAP2 SUB SWAP1 RETURN JUMPDEST CALLVALUE DUP1 ISZERO PUSH2 0x12C JUMPI PUSH0 DUP1 REVERT JUMPDEST POP PUSH2 0x147 PUSH1 0x4 DUP1 CALLDATASIZE SUB DUP2 ADD SWAP1 PUSH2 0x142 SWAP2 SWAP1 PUSH2 0x7AD JUMP JUMPDEST PUSH2 0x4E7 JUMP JUMPDEST PUSH1 0x40 MLOAD PUSH2 0x154 SWAP2 SWAP1 PUSH2 0x76A JUMP JUMPDEST PUSH1 0x40 MLOAD DUP1 SWAP2 SUB SWAP1 RETURN JUMPDEST PUSH9 0x2B5E3AF16B1880000 PUSH2 0x170 CALLVALUE PUSH2 0x522 JUMP JUMPDEST LT ISZERO PUSH2 0x1B1 JUMPI PUSH1 0x40 MLOAD PUSH32 0x8C379A000000000000000000000000000000000000000000000000000000000 DUP2 MSTORE PUSH1 0x4 ADD PUSH2 0x1A8 SWAP1 PUSH2 0x832 JUMP JUMPDEST PUSH1 0x40 MLOAD DUP1 SWAP2 SUB SWAP1 REVERT JUMPDEST PUSH1 0x1 CALLER SWAP1 DUP1 PUSH1 0x1 DUP2 SLOAD ADD DUP1 DUP3 SSTORE DUP1 SWAP2 POP POP PUSH1 0x1 SWAP1 SUB SWAP1 PUSH0 MSTORE PUSH1 0x20 PUSH0 KECCAK256 ADD PUSH0 SWAP1 SWAP2 SWAP1 SWAP2 SWAP1 SWAP2 PUSH2 0x100 EXP DUP2 SLOAD DUP2 PUSH20 0xFFFFFFFFFFFFFFFFFFFFFFFFFFFFFFFFFFFFFFFF MUL NOT AND SWAP1 DUP4 PUSH20 0xFFFFFFFFFFFFFFFFFFFFFFFFFFFFFFFFFFFFFFFF AND MUL OR SWAP1 SSTORE POP CALLVALUE PUSH1 0x2 PUSH0 CALLER PUSH20 0xFFFFFFFFFFFFFFFFFFFFFFFFFFFFFFFFFFFFFFFF AND PUSH20 0xFFFFFFFFFFFFFFFFFFFFFFFFFFFFFFFFFFFFFFFF AND DUP2 MSTORE PUSH1 0x20 ADD SWAP1 DUP2 MSTORE PUSH1 0x20 ADD PUSH0 KECCAK256 DUP2 SWAP1 SSTORE POP JUMP JUMPDEST PUSH1 0x2 PUSH1 0x20 MSTORE DUP1 PUSH0 MSTORE PUSH1 0x40 PUSH0 KECCAK256 PUSH0 SWAP2 POP SWAP1 POP SLOAD DUP2 JUMP JUMPDEST PUSH0 DUP1 SLOAD SWAP1 PUSH2 0x100 EXP SWAP1 DIV PUSH20 0xFFFFFFFFFFFFFFFFFFFFFFFFFFFFFFFFFFFFFFFF AND PUSH20 0xFFFFFFFFFFFFFFFFFFFFFFFFFFFFFFFFFFFFFFFF AND CALLER PUSH20 0xFFFFFFFFFFFFFFFFFFFFFFFFFFFFFFFFFFFFFFFF AND EQ PUSH2 0x2EE JUMPI PUSH1 0x40 MLOAD PUSH32 0x30CD747100000000000000000000000000000000000000000000000000000000 DUP2 MSTORE PUSH1 0x4 ADD PUSH1 0x40 MLOAD DUP1 SWAP2 SUB SWAP1 REVERT JUMPDEST PUSH0 JUMPDEST PUSH1 0x1 DUP1 SLOAD SWAP1 POP DUP2 LT ISZERO PUSH2 0x38C JUMPI PUSH0 PUSH1 0x1 DUP3 DUP2 SLOAD DUP2 LT PUSH2 0x312 JUMPI PUSH2 0x311 PUSH2 0x850 JUMP JUMPDEST JUMPDEST SWAP1 PUSH0 MSTORE PUSH1 0x20 PUSH0 KECCAK256 ADD PUSH0 SWAP1 SLOAD SWAP1 PUSH2 0x100 EXP SWAP1 DIV PUSH20 0xFFFFFFFFFFFFFFFFFFFFFFFFFFFFFFFFFFFFFFFF AND SWAP1 POP PUSH0 PUSH1 0x2 PUSH0 DUP4 PUSH20 0xFFFFFFFFFFFFFFFFFFFFFFFFFFFFFFFFFFFFFFFF AND PUSH20 0xFFFFFFFFFFFFFFFFFFFFFFFFFFFFFFFFFFFFFFFF AND DUP2 MSTORE PUSH1 0x20 ADD SWAP1 DUP2 MSTORE PUSH1 0x20 ADD PUSH0 KECCAK256 DUP2 SWAP1 SSTORE POP POP DUP1 DUP1 PUSH1 0x1 ADD SWAP2 POP POP PUSH2 0x2F0 JUMP JUMPDEST POP PUSH0 PUSH8 0xFFFFFFFFFFFFFFFF DUP2 GT ISZERO PUSH2 0x3A7 JUMPI PUSH2 0x3A6 PUSH2 0x87D JUMP JUMPDEST JUMPDEST PUSH1 0x40 MLOAD SWAP1 DUP1 DUP3 MSTORE DUP1 PUSH1 0x20 MUL PUSH1 0x20 ADD DUP3 ADD PUSH1 0x40 MSTORE DUP1 ISZERO PUSH2 0x3D5 JUMPI DUP2 PUSH1 0x20 ADD PUSH1 0x20 DUP3 MUL DUP1 CALLDATASIZE DUP4 CALLDATACOPY DUP1 DUP3 ADD SWAP2 POP POP SWAP1 POP JUMPDEST POP PUSH1 0x1 SWAP1 DUP1 MLOAD SWAP1 PUSH1 0x20 ADD SWAP1 PUSH2 0x3EB SWAP3 SWAP2 SWAP1 PUSH2 0x5FF JUMP JUMPDEST POP PUSH0 DUP1 PUSH0 SWAP1 SLOAD SWAP1 PUSH2 0x100 EXP SWAP1 DIV PUSH20 0xFFFFFFFFFFFFFFFFFFFFFFFFFFFFFFFFFFFFFFFF AND PUSH20 0xFFFFFFFFFFFFFFFFFFFFFFFFFFFFFFFFFFFFFFFF AND SELFBALANCE PUSH1 0x40 MLOAD PUSH2 0x431 SWAP1 PUSH2 0x8D7 JUMP JUMPDEST PUSH0 PUSH1 0x40 MLOAD DUP1 DUP4 SUB DUP2 DUP6 DUP8 GAS CALL SWAP3 POP POP POP RETURNDATASIZE DUP1 PUSH0 DUP2 EQ PUSH2 0x46B JUMPI PUSH1 0x40 MLOAD SWAP2 POP PUSH1 0x1F NOT PUSH1 0x3F RETURNDATASIZE ADD AND DUP3 ADD PUSH1 0x40 MSTORE RETURNDATASIZE DUP3 MSTORE RETURNDATASIZE PUSH0 PUSH1 0x20 DUP5 ADD RETURNDATACOPY PUSH2 0x470 JUMP JUMPDEST PUSH1 0x60 SWAP2 POP JUMPDEST POP POP SWAP1 POP DUP1 PUSH2 0x4B4 JUMPI PUSH1 0x40 MLOAD PUSH32 0x8C379A000000000000000000000000000000000000000000000000000000000 DUP2 MSTORE PUSH1 0x4 ADD PUSH2 0x4AB SWAP1 PUSH2 0x935 JUMP JUMPDEST PUSH1 0x40 MLOAD DUP1 SWAP2 SUB SWAP1 REVERT JUMPDEST POP JUMP JUMPDEST PUSH9 0x2B5E3AF16B1880000 DUP2 JUMP JUMPDEST PUSH0 DUP1 SLOAD SWAP1 PUSH2 0x100 EXP SWAP1 DIV PUSH20 0xFFFFFFFFFFFFFFFFFFFFFFFFFFFFFFFFFFFFFFFF AND DUP2 JUMP JUMPDEST PUSH1 0x1 DUP2 DUP2 SLOAD DUP2 LT PUSH2 0x4F6 JUMPI PUSH0 DUP1 REVERT JUMPDEST SWAP1 PUSH0 MSTORE PUSH1 0x20 PUSH0 KECCAK256 ADD PUSH0 SWAP2 POP SLOAD SWAP1 PUSH2 0x100 EXP SWAP1 DIV PUSH20 0xFFFFFFFFFFFFFFFFFFFFFFFFFFFFFFFFFFFFFFFF AND DUP2 JUMP JUMPDEST PUSH0 DUP1 PUSH2 0x52C PUSH2 0x55A JUMP JUMPDEST SWAP1 POP PUSH0 PUSH8 0xDE0B6B3A7640000 DUP5 DUP4 PUSH2 0x544 SWAP2 SWAP1 PUSH2 0x980 JUMP JUMPDEST PUSH2 0x54E SWAP2 SWAP1 PUSH2 0x9EE JUMP JUMPDEST SWAP1 POP DUP1 SWAP3 POP POP POP SWAP2 SWAP1 POP JUMP JUMPDEST PUSH0 DUP1 PUSH20 0x694AA1769357215DE4FAC081BF1F309ADC325306 SWAP1 POP PUSH0 DUP2 PUSH20 0xFFFFFFFFFFFFFFFFFFFFFFFFFFFFFFFFFFFFFFFF AND PUSH4 0xFEAF968C PUSH1 0x40 MLOAD DUP2 PUSH4 0xFFFFFFFF AND PUSH1 0xE0 SHL DUP2 MSTORE PUSH1 0x4 ADD PUSH1 0xA0 PUSH1 0x40 MLOAD DUP1 DUP4 SUB DUP2 DUP7 GAS STATICCALL ISZERO DUP1 ISZERO PUSH2 0x5BD JUMPI RETURNDATASIZE PUSH0 DUP1 RETURNDATACOPY RETURNDATASIZE PUSH0 REVERT JUMPDEST POP POP POP POP PUSH1 0x40 MLOAD RETURNDATASIZE PUSH1 0x1F NOT PUSH1 0x1F DUP3 ADD AND DUP3 ADD DUP1 PUSH1 0x40 MSTORE POP DUP2 ADD SWAP1 PUSH2 0x5E1 SWAP2 SWAP1 PUSH2 0xAA4 JUMP JUMPDEST POP POP POP SWAP2 POP POP PUSH5 0x2540BE400 DUP2 PUSH2 0x5F8 SWAP2 SWAP1 PUSH2 0xB1B JUMP JUMPDEST SWAP3 POP POP POP SWAP1 JUMP JUMPDEST DUP3 DUP1 SLOAD DUP3 DUP3 SSTORE SWAP1 PUSH0 MSTORE PUSH1 0x20 PUSH0 KECCAK256 SWAP1 DUP2 ADD SWAP3 DUP3 ISZERO PUSH2 0x675 JUMPI SWAP2 PUSH1 0x20 MUL DUP3 ADD JUMPDEST DUP3 DUP2 GT ISZERO PUSH2 0x674 JUMPI DUP3 MLOAD DUP3 PUSH0 PUSH2 0x100 EXP DUP2 SLOAD DUP2 PUSH20 0xFFFFFFFFFFFFFFFFFFFFFFFFFFFFFFFFFFFFFFFF MUL NOT AND SWAP1 DUP4 PUSH20 0xFFFFFFFFFFFFFFFFFFFFFFFFFFFFFFFFFFFFFFFF AND MUL OR SWAP1 SSTORE POP SWAP2 PUSH1 0x20 ADD SWAP2 SWAP1 PUSH1 0x1 ADD SWAP1 PUSH2 0x61D JUMP JUMPDEST JUMPDEST POP SWAP1 POP PUSH2 0x682 SWAP2 SWAP1 PUSH2 0x686 JUMP JUMPDEST POP SWAP1 JUMP JUMPDEST JUMPDEST DUP1 DUP3 GT ISZERO PUSH2 0x69D JUMPI PUSH0 DUP2 PUSH0 SWAP1 SSTORE POP PUSH1 0x1 ADD PUSH2 0x687 JUMP JUMPDEST POP SWAP1 JUMP JUMPDEST PUSH0 DUP1 REVERT JUMPDEST PUSH0 PUSH20 0xFFFFFFFFFFFFFFFFFFFFFFFFFFFFFFFFFFFFFFFF DUP3 AND SWAP1 POP SWAP2 SWAP1 POP JUMP JUMPDEST PUSH0 PUSH2 0x6CE DUP3 PUSH2 0x6A5 JUMP JUMPDEST SWAP1 POP SWAP2 SWAP1 POP JUMP JUMPDEST PUSH2 0x6DE DUP2 PUSH2 0x6C4 JUMP JUMPDEST DUP2 EQ PUSH2 0x6E8 JUMPI PUSH0 DUP1 REVERT JUMPDEST POP JUMP JUMPDEST PUSH0 DUP2 CALLDATALOAD SWAP1 POP PUSH2 0x6F9 DUP2 PUSH2 0x6D5 JUMP JUMPDEST SWAP3 SWAP2 POP POP JUMP JUMPDEST PUSH0 PUSH1 0x20 DUP3 DUP5 SUB SLT ISZERO PUSH2 0x714 JUMPI PUSH2 0x713 PUSH2 0x6A1 JUMP JUMPDEST JUMPDEST PUSH0 PUSH2 0x721 DUP5 DUP3 DUP6 ADD PUSH2 0x6EB JUMP JUMPDEST SWAP2 POP POP SWAP3 SWAP2 POP POP JUMP JUMPDEST PUSH0 DUP2 SWAP1 POP SWAP2 SWAP1 POP JUMP JUMPDEST PUSH2 0x73C DUP2 PUSH2 0x72A JUMP JUMPDEST DUP3 MSTORE POP POP JUMP JUMPDEST PUSH0 PUSH1 0x20 DUP3 ADD SWAP1 POP PUSH2 0x755 PUSH0 DUP4 ADD DUP5 PUSH2 0x733 JUMP JUMPDEST SWAP3 SWAP2 POP POP JUMP JUMPDEST PUSH2 0x764 DUP2 PUSH2 0x6C4 JUMP JUMPDEST DUP3 MSTORE POP POP JUMP JUMPDEST PUSH0 PUSH1 0x20 DUP3 ADD SWAP1 POP PUSH2 0x77D PUSH0 DUP4 ADD DUP5 PUSH2 0x75B JUMP JUMPDEST SWAP3 SWAP2 POP POP JUMP JUMPDEST PUSH2 0x78C DUP2 PUSH2 0x72A JUMP JUMPDEST DUP2 EQ PUSH2 0x796 JUMPI PUSH0 DUP1 REVERT JUMPDEST POP JUMP JUMPDEST PUSH0 DUP2 CALLDATALOAD SWAP1 POP PUSH2 0x7A7 DUP2 PUSH2 0x783 JUMP JUMPDEST SWAP3 SWAP2 POP POP JUMP JUMPDEST PUSH0 PUSH1 0x20 DUP3 DUP5 SUB SLT ISZERO PUSH2 0x7C2 JUMPI PUSH2 0x7C1 PUSH2 0x6A1 JUMP JUMPDEST JUMPDEST PUSH0 PUSH2 0x7CF DUP5 DUP3 DUP6 ADD PUSH2 0x799 JUMP JUMPDEST SWAP2 POP POP SWAP3 SWAP2 POP POP JUMP JUMPDEST PUSH0 DUP3 DUP3 MSTORE PUSH1 0x20 DUP3 ADD SWAP1 POP SWAP3 SWAP2 POP POP JUMP JUMPDEST PUSH32 0x446F6E2774206861766520656E6F7567682042616C616E63652C000000000000 PUSH0 DUP3 ADD MSTORE POP JUMP JUMPDEST PUSH0 PUSH2 0x81C PUSH1 0x1A DUP4 PUSH2 0x7D8 JUMP JUMPDEST SWAP2 POP PUSH2 0x827 DUP3 PUSH2 0x7E8 JUMP JUMPDEST PUSH1 0x20 DUP3 ADD SWAP1 POP SWAP2 SWAP1 POP JUMP JUMPDEST PUSH0 PUSH1 0x20 DUP3 ADD SWAP1 POP DUP2 DUP2 SUB PUSH0 DUP4 ADD MSTORE PUSH2 0x849 DUP2 PUSH2 0x810 JUMP JUMPDEST SWAP1 POP SWAP2 SWAP1 POP JUMP JUMPDEST PUSH32 0x4E487B7100000000000000000000000000000000000000000000000000000000 PUSH0 MSTORE PUSH1 0x32 PUSH1 0x4 MSTORE PUSH1 0x24 PUSH0 REVERT JUMPDEST PUSH32 0x4E487B7100000000000000000000000000000000000000000000000000000000 PUSH0 MSTORE PUSH1 0x41 PUSH1 0x4 MSTORE PUSH1 0x24 PUSH0 REVERT JUMPDEST PUSH0 DUP2 SWAP1 POP SWAP3 SWAP2 POP POP JUMP JUMPDEST POP JUMP JUMPDEST PUSH0 PUSH2 0x8C2 PUSH0 DUP4 PUSH2 0x8AA JUMP JUMPDEST SWAP2 POP PUSH2 0x8CD DUP3 PUSH2 0x8B4 JUMP JUMPDEST PUSH0 DUP3 ADD SWAP1 POP SWAP2 SWAP1 POP JUMP JUMPDEST PUSH0 PUSH2 0x8E1 DUP3 PUSH2 0x8B7 JUMP JUMPDEST SWAP2 POP DUP2 SWAP1 POP SWAP2 SWAP1 POP JUMP JUMPDEST PUSH32 0x43616C6C204661696C6564000000000000000000000000000000000000000000 PUSH0 DUP3 ADD MSTORE POP JUMP JUMPDEST PUSH0 PUSH2 0x91F PUSH1 0xB DUP4 PUSH2 0x7D8 JUMP JUMPDEST SWAP2 POP PUSH2 0x92A DUP3 PUSH2 0x8EB JUMP JUMPDEST PUSH1 0x20 DUP3 ADD SWAP1 POP SWAP2 SWAP1 POP JUMP JUMPDEST PUSH0 PUSH1 0x20 DUP3 ADD SWAP1 POP DUP2 DUP2 SUB PUSH0 DUP4 ADD MSTORE PUSH2 0x94C DUP2 PUSH2 0x913 JUMP JUMPDEST SWAP1 POP SWAP2 SWAP1 POP JUMP JUMPDEST PUSH32 0x4E487B7100000000000000000000000000000000000000000000000000000000 PUSH0 MSTORE PUSH1 0x11 PUSH1 0x4 MSTORE PUSH1 0x24 PUSH0 REVERT JUMPDEST PUSH0 PUSH2 0x98A DUP3 PUSH2 0x72A JUMP JUMPDEST SWAP2 POP PUSH2 0x995 DUP4 PUSH2 0x72A JUMP JUMPDEST SWAP3 POP DUP3 DUP3 MUL PUSH2 0x9A3 DUP2 PUSH2 0x72A JUMP JUMPDEST SWAP2 POP DUP3 DUP3 DIV DUP5 EQ DUP4 ISZERO OR PUSH2 0x9BA JUMPI PUSH2 0x9B9 PUSH2 0x953 JUMP JUMPDEST JUMPDEST POP SWAP3 SWAP2 POP POP JUMP JUMPDEST PUSH32 0x4E487B7100000000000000000000000000000000000000000000000000000000 PUSH0 MSTORE PUSH1 0x12 PUSH1 0x4 MSTORE PUSH1 0x24 PUSH0 REVERT JUMPDEST PUSH0 PUSH2 0x9F8 DUP3 PUSH2 0x72A JUMP JUMPDEST SWAP2 POP PUSH2 0xA03 DUP4 PUSH2 0x72A JUMP JUMPDEST SWAP3 POP DUP3 PUSH2 0xA13 JUMPI PUSH2 0xA12 PUSH2 0x9C1 JUMP JUMPDEST JUMPDEST DUP3 DUP3 DIV SWAP1 POP SWAP3 SWAP2 POP POP JUMP JUMPDEST PUSH0 PUSH10 0xFFFFFFFFFFFFFFFFFFFF DUP3 AND SWAP1 POP SWAP2 SWAP1 POP JUMP JUMPDEST PUSH2 0xA3C DUP2 PUSH2 0xA1E JUMP JUMPDEST DUP2 EQ PUSH2 0xA46 JUMPI PUSH0 DUP1 REVERT JUMPDEST POP JUMP JUMPDEST PUSH0 DUP2 MLOAD SWAP1 POP PUSH2 0xA57 DUP2 PUSH2 0xA33 JUMP JUMPDEST SWAP3 SWAP2 POP POP JUMP JUMPDEST PUSH0 DUP2 SWAP1 POP SWAP2 SWAP1 POP JUMP JUMPDEST PUSH2 0xA6F DUP2 PUSH2 0xA5D JUMP JUMPDEST DUP2 EQ PUSH2 0xA79 JUMPI PUSH0 DUP1 REVERT JUMPDEST POP JUMP JUMPDEST PUSH0 DUP2 MLOAD SWAP1 POP PUSH2 0xA8A DUP2 PUSH2 0xA66 JUMP JUMPDEST SWAP3 SWAP2 POP POP JUMP JUMPDEST PUSH0 DUP2 MLOAD SWAP1 POP PUSH2 0xA9E DUP2 PUSH2 0x783 JUMP JUMPDEST SWAP3 SWAP2 POP POP JUMP JUMPDEST PUSH0 DUP1 PUSH0 DUP1 PUSH0 PUSH1 0xA0 DUP7 DUP9 SUB SLT ISZERO PUSH2 0xABD JUMPI PUSH2 0xABC PUSH2 0x6A1 JUMP JUMPDEST JUMPDEST PUSH0 PUSH2 0xACA DUP9 DUP3 DUP10 ADD PUSH2 0xA49 JUMP JUMPDEST SWAP6 POP POP PUSH1 0x20 PUSH2 0xADB DUP9 DUP3 DUP10 ADD PUSH2 0xA7C JUMP JUMPDEST SWAP5 POP POP PUSH1 0x40 PUSH2 0xAEC DUP9 DUP3 DUP10 ADD PUSH2 0xA90 JUMP JUMPDEST SWAP4 POP POP PUSH1 0x60 PUSH2 0xAFD DUP9 DUP3 DUP10 ADD PUSH2 0xA90 JUMP JUMPDEST SWAP3 POP POP PUSH1 0x80 PUSH2 0xB0E DUP9 DUP3 DUP10 ADD PUSH2 0xA49 JUMP JUMPDEST SWAP2 POP POP SWAP3 SWAP6 POP SWAP3 SWAP6 SWAP1 SWAP4 POP JUMP JUMPDEST PUSH0 PUSH2 0xB25 DUP3 PUSH2 0xA5D JUMP JUMPDEST SWAP2 POP PUSH2 0xB30 DUP4 PUSH2 0xA5D JUMP JUMPDEST SWAP3 POP DUP3 DUP3 MUL PUSH2 0xB3E DUP2 PUSH2 0xA5D JUMP JUMPDEST SWAP2 POP PUSH32 0x8000000000000000000000000000000000000000000000000000000000000000 DUP5 EQ PUSH0 DUP5 SLT AND ISZERO PUSH2 0xB75 JUMPI PUSH2 0xB74 PUSH2 0x953 JUMP JUMPDEST JUMPDEST DUP3 DUP3 SDIV DUP5 EQ DUP4 ISZERO OR PUSH2 0xB8A JUMPI PUSH2 0xB89 PUSH2 0x953 JUMP JUMPDEST JUMPDEST POP SWAP3 SWAP2 POP POP JUMP INVALID LOG2 PUSH5 0x6970667358 0x22 SLT KECCAK256 0xCB DUP16 SELFBALANCE DUP2 EXTCODEHASH 0xC1 DUP7 XOR 0xBB 0x4C MSIZE 0xDD RETURNDATASIZE DUP8 0xE1 DUP9 0xBB DUP7 ADDRESS DUP9 SGT 0xF7 JUMPI PUSH13 0xD8B724D613CB85F064736F6C63 NUMBER STOP ADDMOD AND STOP CALLER "
				},
				"gasEstimates": {
					"creation": {
						"codeDepositCost": "603000",
						"executionCost": "24901",
						"totalCost": "627901"
					},
					"external": {
						"": "infinite",
						"MINIMUM_USD()": "347",
						"addressToAmount(address)": "2780",
						"fund()": "infinite",
						"funders(uint256)": "5032",
						"i_owner()": "2571",
						"withdraw()": "infinite"
					}
				},
				"methodIdentifiers": {
					"MINIMUM_USD()": "6b69a592",
					"addressToAmount(address)": "3c7e7d28",
					"fund()": "b60d4288",
					"funders(uint256)": "dc0d3dff",
					"i_owner()": "dba6335f",
					"withdraw()": "3ccfd60b"
				}
			},
			"storageLayout": {
				"storage": [
					{
						"astId": 60,
						"contract": "contracts/FundMe.sol:FundMe",
						"label": "i_owner",
						"offset": 0,
						"slot": "0",
						"type": "t_address"
					},
					{
						"astId": 63,
						"contract": "contracts/FundMe.sol:FundMe",
						"label": "funders",
						"offset": 0,
						"slot": "1",
						"type": "t_array(t_address)dyn_storage"
					},
					{
						"astId": 67,
						"contract": "contracts/FundMe.sol:FundMe",
						"label": "addressToAmount",
						"offset": 0,
						"slot": "2",
						"type": "t_mapping(t_address,t_uint256)"
					}
				],
				"types": {
					"t_address": {
						"encoding": "inplace",
						"label": "address",
						"numberOfBytes": "20"
					},
					"t_array(t_address)dyn_storage": {
						"base": "t_address",
						"encoding": "dynamic_array",
						"label": "address[]",
						"numberOfBytes": "32"
					},
					"t_mapping(t_address,t_uint256)": {
						"encoding": "mapping",
						"key": "t_address",
						"label": "mapping(address => uint256)",
						"numberOfBytes": "32",
						"value": "t_uint256"
					},
					"t_uint256": {
						"encoding": "inplace",
						"label": "uint256",
						"numberOfBytes": "32"
					}
				}
			},
			"userdoc": {
				"kind": "user",
				"methods": {},
				"version": 1
			}
		}
	}
}