{
	"data": {
		"bytecode": {
			"linkReferences": {},
			"object": "608060405234801561000f575f80fd5b506109638061001d5f395ff3fe608060405234801561000f575f80fd5b5060043610610055575f3560e01c80630284c045146100595780632e64cec11461008a5780632fae4ffd146100a85780636057361d146100d85780636f760f41146100f4575b5f80fd5b610073600480360381019061006e91906102dc565b610110565b6040516100819291906103a0565b60405180910390f35b6100926101c5565b60405161009f91906103ce565b60405180910390f35b6100c260048036038101906100bd9190610513565b6101cd565b6040516100cf91906103ce565b60405180910390f35b6100f260048036038101906100ed91906102dc565b6101fa565b005b61010e6004803603810190610109919061055a565b61020f565b005b6001818154811061011f575f80fd5b905f5260205f2090600202015f91509050805f015490806001018054610144906105e1565b80601f0160208091040260200160405190810160405280929190818152602001828054610170906105e1565b80156101bb5780601f10610192576101008083540402835291602001916101bb565b820191905f5260205f20905b81548152906001019060200180831161019e57829003601f168201915b5050505050905082565b5f8054905090565b6002818051602081018201805184825260208301602085012081835280955050505050505f915090505481565b600581610207919061063e565b5f8190555050565b5f6040518060400160405280838152602001848152509050600181908060018154018082558091505060019003905f5260205f2090600202015f909190919091505f820151815f0155602082015181600101908161026d919061080e565b505050816002846040516102819190610917565b908152602001604051809103902081905550505050565b5f604051905090565b5f80fd5b5f80fd5b5f819050919050565b6102bb816102a9565b81146102c5575f80fd5b50565b5f813590506102d6816102b2565b92915050565b5f602082840312156102f1576102f06102a1565b5b5f6102fe848285016102c8565b91505092915050565b610310816102a9565b82525050565b5f81519050919050565b5f82825260208201905092915050565b5f5b8381101561034d578082015181840152602081019050610332565b5f8484015250505050565b5f601f19601f8301169050919050565b5f61037282610316565b61037c8185610320565b935061038c818560208601610330565b61039581610358565b840191505092915050565b5f6040820190506103b35f830185610307565b81810360208301526103c58184610368565b90509392505050565b5f6020820190506103e15f830184610307565b92915050565b5f80fd5b5f80fd5b7f4e487b71000000000000000000000000000000000000000000000000000000005f52604160045260245ffd5b61042582610358565b810181811067ffffffffffffffff82111715610444576104436103ef565b5b80604052505050565b5f610456610298565b9050610462828261041c565b919050565b5f67ffffffffffffffff821115610481576104806103ef565b5b61048a82610358565b9050602081019050919050565b828183375f83830152505050565b5f6104b76104b284610467565b61044d565b9050828152602081018484840111156104d3576104d26103eb565b5b6104de848285610497565b509392505050565b5f82601f8301126104fa576104f96103e7565b5b813561050a8482602086016104a5565b91505092915050565b5f60208284031215610528576105276102a1565b5b5f82013567ffffffffffffffff811115610545576105446102a5565b5b610551848285016104e6565b91505092915050565b5f80604083850312156105705761056f6102a1565b5b5f83013567ffffffffffffffff81111561058d5761058c6102a5565b5b610599858286016104e6565b92505060206105aa858286016102c8565b9150509250929050565b7f4e487b71000000000000000000000000000000000000000000000000000000005f52602260045260245ffd5b5f60028204905060018216806105f857607f821691505b60208210810361060b5761060a6105b4565b5b50919050565b7f4e487b71000000000000000000000000000000000000000000000000000000005f52601160045260245ffd5b5f610648826102a9565b9150610653836102a9565b925082820190508082111561066b5761066a610611565b5b92915050565b5f819050815f5260205f209050919050565b5f6020601f8301049050919050565b5f82821b905092915050565b5f600883026106cd7fffffffffffffffffffffffffffffffffffffffffffffffffffffffffffffffff82610692565b6106d78683610692565b95508019841693508086168417925050509392505050565b5f819050919050565b5f61071261070d610708846102a9565b6106ef565b6102a9565b9050919050565b5f819050919050565b61072b836106f8565b61073f61073782610719565b84845461069e565b825550505050565b5f90565b610753610747565b61075e818484610722565b505050565b5b81811015610781576107765f8261074b565b600181019050610764565b5050565b601f8211156107c65761079781610671565b6107a084610683565b810160208510156107af578190505b6107c36107bb85610683565b830182610763565b50505b505050565b5f82821c905092915050565b5f6107e65f19846008026107cb565b1980831691505092915050565b5f6107fe83836107d7565b9150826002028217905092915050565b61081782610316565b67ffffffffffffffff8111156108305761082f6103ef565b5b61083a82546105e1565b610845828285610785565b5f60209050601f831160018114610876575f8415610864578287015190505b61086e85826107f3565b8655506108d5565b601f19841661088486610671565b5f5b828110156108ab57848901518255600182019150602085019450602081019050610886565b868310156108c857848901516108c4601f8916826107d7565b8355505b6001600288020188555050505b505050505050565b5f81905092915050565b5f6108f182610316565b6108fb81856108dd565b935061090b818560208601610330565b80840191505092915050565b5f61092282846108e7565b91508190509291505056fea2646970667358221220a05b3558b0424c39956919bf0b7f00d9b2a6a21a36d514a6ec61fced1b5bf71964736f6c63430008160033",
			"opcodes": "PUSH1 0x80 PUSH1 0x40 MSTORE CALLVALUE DUP1 ISZERO PUSH2 0xF JUMPI PUSH0 DUP1 REVERT JUMPDEST POP PUSH2 0x963 DUP1 PUSH2 0x1D PUSH0 CODECOPY PUSH0 RETURN INVALID PUSH1 0x80 PUSH1 0x40 MSTORE CALLVALUE DUP1 ISZERO PUSH2 0xF JUMPI PUSH0 DUP1 REVERT JUMPDEST POP PUSH1 0x4 CALLDATASIZE LT PUSH2 0x55 JUMPI PUSH0 CALLDATALOAD PUSH1 0xE0 SHR DUP1 PUSH4 0x284C045 EQ PUSH2 0x59 JUMPI DUP1 PUSH4 0x2E64CEC1 EQ PUSH2 0x8A JUMPI DUP1 PUSH4 0x2FAE4FFD EQ PUSH2 0xA8 JUMPI DUP1 PUSH4 0x6057361D EQ PUSH2 0xD8 JUMPI DUP1 PUSH4 0x6F760F41 EQ PUSH2 0xF4 JUMPI JUMPDEST PUSH0 DUP1 REVERT JUMPDEST PUSH2 0x73 PUSH1 0x4 DUP1 CALLDATASIZE SUB DUP2 ADD SWAP1 PUSH2 0x6E SWAP2 SWAP1 PUSH2 0x2DC JUMP JUMPDEST PUSH2 0x110 JUMP JUMPDEST PUSH1 0x40 MLOAD PUSH2 0x81 SWAP3 SWAP2 SWAP1 PUSH2 0x3A0 JUMP JUMPDEST PUSH1 0x40 MLOAD DUP1 SWAP2 SUB SWAP1 RETURN JUMPDEST PUSH2 0x92 PUSH2 0x1C5 JUMP JUMPDEST PUSH1 0x40 MLOAD PUSH2 0x9F SWAP2 SWAP1 PUSH2 0x3CE JUMP JUMPDEST PUSH1 0x40 MLOAD DUP1 SWAP2 SUB SWAP1 RETURN JUMPDEST PUSH2 0xC2 PUSH1 0x4 DUP1 CALLDATASIZE SUB DUP2 ADD SWAP1 PUSH2 0xBD SWAP2 SWAP1 PUSH2 0x513 JUMP JUMPDEST PUSH2 0x1CD JUMP JUMPDEST PUSH1 0x40 MLOAD PUSH2 0xCF SWAP2 SWAP1 PUSH2 0x3CE JUMP JUMPDEST PUSH1 0x40 MLOAD DUP1 SWAP2 SUB SWAP1 RETURN JUMPDEST PUSH2 0xF2 PUSH1 0x4 DUP1 CALLDATASIZE SUB DUP2 ADD SWAP1 PUSH2 0xED SWAP2 SWAP1 PUSH2 0x2DC JUMP JUMPDEST PUSH2 0x1FA JUMP JUMPDEST STOP JUMPDEST PUSH2 0x10E PUSH1 0x4 DUP1 CALLDATASIZE SUB DUP2 ADD SWAP1 PUSH2 0x109 SWAP2 SWAP1 PUSH2 0x55A JUMP JUMPDEST PUSH2 0x20F JUMP JUMPDEST STOP JUMPDEST PUSH1 0x1 DUP2 DUP2 SLOAD DUP2 LT PUSH2 0x11F JUMPI PUSH0 DUP1 REVERT JUMPDEST SWAP1 PUSH0 MSTORE PUSH1 0x20 PUSH0 KECCAK256 SWAP1 PUSH1 0x2 MUL ADD PUSH0 SWAP2 POP SWAP1 POP DUP1 PUSH0 ADD SLOAD SWAP1 DUP1 PUSH1 0x1 ADD DUP1 SLOAD PUSH2 0x144 SWAP1 PUSH2 0x5E1 JUMP JUMPDEST DUP1 PUSH1 0x1F ADD PUSH1 0x20 DUP1 SWAP2 DIV MUL PUSH1 0x20 ADD PUSH1 0x40 MLOAD SWAP1 DUP2 ADD PUSH1 0x40 MSTORE DUP1 SWAP3 SWAP2 SWAP1 DUP2 DUP2 MSTORE PUSH1 0x20 ADD DUP3 DUP1 SLOAD PUSH2 0x170 SWAP1 PUSH2 0x5E1 JUMP JUMPDEST DUP1 ISZERO PUSH2 0x1BB JUMPI DUP1 PUSH1 0x1F LT PUSH2 0x192 JUMPI PUSH2 0x100 DUP1 DUP4 SLOAD DIV MUL DUP4 MSTORE SWAP2 PUSH1 0x20 ADD SWAP2 PUSH2 0x1BB JUMP JUMPDEST DUP3 ADD SWAP2 SWAP1 PUSH0 MSTORE PUSH1 0x20 PUSH0 KECCAK256 SWAP1 JUMPDEST DUP2 SLOAD DUP2 MSTORE SWAP1 PUSH1 0x1 ADD SWAP1 PUSH1 0x20 ADD DUP1 DUP4 GT PUSH2 0x19E JUMPI DUP3 SWAP1 SUB PUSH1 0x1F AND DUP3 ADD SWAP2 JUMPDEST POP POP POP POP POP SWAP1 POP DUP3 JUMP JUMPDEST PUSH0 DUP1 SLOAD SWAP1 POP SWAP1 JUMP JUMPDEST PUSH1 0x2 DUP2 DUP1 MLOAD PUSH1 0x20 DUP2 ADD DUP3 ADD DUP1 MLOAD DUP5 DUP3 MSTORE PUSH1 0x20 DUP4 ADD PUSH1 0x20 DUP6 ADD KECCAK256 DUP2 DUP4 MSTORE DUP1 SWAP6 POP POP POP POP POP POP PUSH0 SWAP2 POP SWAP1 POP SLOAD DUP2 JUMP JUMPDEST PUSH1 0x5 DUP2 PUSH2 0x207 SWAP2 SWAP1 PUSH2 0x63E JUMP JUMPDEST PUSH0 DUP2 SWAP1 SSTORE POP POP JUMP JUMPDEST PUSH0 PUSH1 0x40 MLOAD DUP1 PUSH1 0x40 ADD PUSH1 0x40 MSTORE DUP1 DUP4 DUP2 MSTORE PUSH1 0x20 ADD DUP5 DUP2 MSTORE POP SWAP1 POP PUSH1 0x1 DUP2 SWAP1 DUP1 PUSH1 0x1 DUP2 SLOAD ADD DUP1 DUP3 SSTORE DUP1 SWAP2 POP POP PUSH1 0x1 SWAP1 SUB SWAP1 PUSH0 MSTORE PUSH1 0x20 PUSH0 KECCAK256 SWAP1 PUSH1 0x2 MUL ADD PUSH0 SWAP1 SWAP2 SWAP1 SWAP2 SWAP1 SWAP2 POP PUSH0 DUP3 ADD MLOAD DUP2 PUSH0 ADD SSTORE PUSH1 0x20 DUP3 ADD MLOAD DUP2 PUSH1 0x1 ADD SWAP1 DUP2 PUSH2 0x26D SWAP2 SWAP1 PUSH2 0x80E JUMP JUMPDEST POP POP POP DUP2 PUSH1 0x2 DUP5 PUSH1 0x40 MLOAD PUSH2 0x281 SWAP2 SWAP1 PUSH2 0x917 JUMP JUMPDEST SWAP1 DUP2 MSTORE PUSH1 0x20 ADD PUSH1 0x40 MLOAD DUP1 SWAP2 SUB SWAP1 KECCAK256 DUP2 SWAP1 SSTORE POP POP POP POP JUMP JUMPDEST PUSH0 PUSH1 0x40 MLOAD SWAP1 POP SWAP1 JUMP JUMPDEST PUSH0 DUP1 REVERT JUMPDEST PUSH0 DUP1 REVERT JUMPDEST PUSH0 DUP2 SWAP1 POP SWAP2 SWAP1 POP JUMP JUMPDEST PUSH2 0x2BB DUP2 PUSH2 0x2A9 JUMP JUMPDEST DUP2 EQ PUSH2 0x2C5 JUMPI PUSH0 DUP1 REVERT JUMPDEST POP JUMP JUMPDEST PUSH0 DUP2 CALLDATALOAD SWAP1 POP PUSH2 0x2D6 DUP2 PUSH2 0x2B2 JUMP JUMPDEST SWAP3 SWAP2 POP POP JUMP JUMPDEST PUSH0 PUSH1 0x20 DUP3 DUP5 SUB SLT ISZERO PUSH2 0x2F1 JUMPI PUSH2 0x2F0 PUSH2 0x2A1 JUMP JUMPDEST JUMPDEST PUSH0 PUSH2 0x2FE DUP5 DUP3 DUP6 ADD PUSH2 0x2C8 JUMP JUMPDEST SWAP2 POP POP SWAP3 SWAP2 POP POP JUMP JUMPDEST PUSH2 0x310 DUP2 PUSH2 0x2A9 JUMP JUMPDEST DUP3 MSTORE POP POP JUMP JUMPDEST PUSH0 DUP2 MLOAD SWAP1 POP SWAP2 SWAP1 POP JUMP JUMPDEST PUSH0 DUP3 DUP3 MSTORE PUSH1 0x20 DUP3 ADD SWAP1 POP SWAP3 SWAP2 POP POP JUMP JUMPDEST PUSH0 JUMPDEST DUP4 DUP2 LT ISZERO PUSH2 0x34D JUMPI DUP1 DUP3 ADD MLOAD DUP2 DUP5 ADD MSTORE PUSH1 0x20 DUP2 ADD SWAP1 POP PUSH2 0x332 JUMP JUMPDEST PUSH0 DUP5 DUP5 ADD MSTORE POP POP POP POP JUMP JUMPDEST PUSH0 PUSH1 0x1F NOT PUSH1 0x1F DUP4 ADD AND SWAP1 POP SWAP2 SWAP1 POP JUMP JUMPDEST PUSH0 PUSH2 0x372 DUP3 PUSH2 0x316 JUMP JUMPDEST PUSH2 0x37C DUP2 DUP6 PUSH2 0x320 JUMP JUMPDEST SWAP4 POP PUSH2 0x38C DUP2 DUP6 PUSH1 0x20 DUP7 ADD PUSH2 0x330 JUMP JUMPDEST PUSH2 0x395 DUP2 PUSH2 0x358 JUMP JUMPDEST DUP5 ADD SWAP2 POP POP SWAP3 SWAP2 POP POP JUMP JUMPDEST PUSH0 PUSH1 0x40 DUP3 ADD SWAP1 POP PUSH2 0x3B3 PUSH0 DUP4 ADD DUP6 PUSH2 0x307 JUMP JUMPDEST DUP2 DUP2 SUB PUSH1 0x20 DUP4 ADD MSTORE PUSH2 0x3C5 DUP2 DUP5 PUSH2 0x368 JUMP JUMPDEST SWAP1 POP SWAP4 SWAP3 POP POP POP JUMP JUMPDEST PUSH0 PUSH1 0x20 DUP3 ADD SWAP1 POP PUSH2 0x3E1 PUSH0 DUP4 ADD DUP5 PUSH2 0x307 JUMP JUMPDEST SWAP3 SWAP2 POP POP JUMP JUMPDEST PUSH0 DUP1 REVERT JUMPDEST PUSH0 DUP1 REVERT JUMPDEST PUSH32 0x4E487B7100000000000000000000000000000000000000000000000000000000 PUSH0 MSTORE PUSH1 0x41 PUSH1 0x4 MSTORE PUSH1 0x24 PUSH0 REVERT JUMPDEST PUSH2 0x425 DUP3 PUSH2 0x358 JUMP JUMPDEST DUP2 ADD DUP2 DUP2 LT PUSH8 0xFFFFFFFFFFFFFFFF DUP3 GT OR ISZERO PUSH2 0x444 JUMPI PUSH2 0x443 PUSH2 0x3EF JUMP JUMPDEST JUMPDEST DUP1 PUSH1 0x40 MSTORE POP POP POP JUMP JUMPDEST PUSH0 PUSH2 0x456 PUSH2 0x298 JUMP JUMPDEST SWAP1 POP PUSH2 0x462 DUP3 DUP3 PUSH2 0x41C JUMP JUMPDEST SWAP2 SWAP1 POP JUMP JUMPDEST PUSH0 PUSH8 0xFFFFFFFFFFFFFFFF DUP3 GT ISZERO PUSH2 0x481 JUMPI PUSH2 0x480 PUSH2 0x3EF JUMP JUMPDEST JUMPDEST PUSH2 0x48A DUP3 PUSH2 0x358 JUMP JUMPDEST SWAP1 POP PUSH1 0x20 DUP2 ADD SWAP1 POP SWAP2 SWAP1 POP JUMP JUMPDEST DUP3 DUP2 DUP4 CALLDATACOPY PUSH0 DUP4 DUP4 ADD MSTORE POP POP POP JUMP JUMPDEST PUSH0 PUSH2 0x4B7 PUSH2 0x4B2 DUP5 PUSH2 0x467 JUMP JUMPDEST PUSH2 0x44D JUMP JUMPDEST SWAP1 POP DUP3 DUP2 MSTORE PUSH1 0x20 DUP2 ADD DUP5 DUP5 DUP5 ADD GT ISZERO PUSH2 0x4D3 JUMPI PUSH2 0x4D2 PUSH2 0x3EB JUMP JUMPDEST JUMPDEST PUSH2 0x4DE DUP5 DUP3 DUP6 PUSH2 0x497 JUMP JUMPDEST POP SWAP4 SWAP3 POP POP POP JUMP JUMPDEST PUSH0 DUP3 PUSH1 0x1F DUP4 ADD SLT PUSH2 0x4FA JUMPI PUSH2 0x4F9 PUSH2 0x3E7 JUMP JUMPDEST JUMPDEST DUP2 CALLDATALOAD PUSH2 0x50A DUP5 DUP3 PUSH1 0x20 DUP7 ADD PUSH2 0x4A5 JUMP JUMPDEST SWAP2 POP POP SWAP3 SWAP2 POP POP JUMP JUMPDEST PUSH0 PUSH1 0x20 DUP3 DUP5 SUB SLT ISZERO PUSH2 0x528 JUMPI PUSH2 0x527 PUSH2 0x2A1 JUMP JUMPDEST JUMPDEST PUSH0 DUP3 ADD CALLDATALOAD PUSH8 0xFFFFFFFFFFFFFFFF DUP2 GT ISZERO PUSH2 0x545 JUMPI PUSH2 0x544 PUSH2 0x2A5 JUMP JUMPDEST JUMPDEST PUSH2 0x551 DUP5 DUP3 DUP6 ADD PUSH2 0x4E6 JUMP JUMPDEST SWAP2 POP POP SWAP3 SWAP2 POP POP JUMP JUMPDEST PUSH0 DUP1 PUSH1 0x40 DUP4 DUP6 SUB SLT ISZERO PUSH2 0x570 JUMPI PUSH2 0x56F PUSH2 0x2A1 JUMP JUMPDEST JUMPDEST PUSH0 DUP4 ADD CALLDATALOAD PUSH8 0xFFFFFFFFFFFFFFFF DUP2 GT ISZERO PUSH2 0x58D JUMPI PUSH2 0x58C PUSH2 0x2A5 JUMP JUMPDEST JUMPDEST PUSH2 0x599 DUP6 DUP3 DUP7 ADD PUSH2 0x4E6 JUMP JUMPDEST SWAP3 POP POP PUSH1 0x20 PUSH2 0x5AA DUP6 DUP3 DUP7 ADD PUSH2 0x2C8 JUMP JUMPDEST SWAP2 POP POP SWAP3 POP SWAP3 SWAP1 POP JUMP JUMPDEST PUSH32 0x4E487B7100000000000000000000000000000000000000000000000000000000 PUSH0 MSTORE PUSH1 0x22 PUSH1 0x4 MSTORE PUSH1 0x24 PUSH0 REVERT JUMPDEST PUSH0 PUSH1 0x2 DUP3 DIV SWAP1 POP PUSH1 0x1 DUP3 AND DUP1 PUSH2 0x5F8 JUMPI PUSH1 0x7F DUP3 AND SWAP2 POP JUMPDEST PUSH1 0x20 DUP3 LT DUP2 SUB PUSH2 0x60B JUMPI PUSH2 0x60A PUSH2 0x5B4 JUMP JUMPDEST JUMPDEST POP SWAP2 SWAP1 POP JUMP JUMPDEST PUSH32 0x4E487B7100000000000000000000000000000000000000000000000000000000 PUSH0 MSTORE PUSH1 0x11 PUSH1 0x4 MSTORE PUSH1 0x24 PUSH0 REVERT JUMPDEST PUSH0 PUSH2 0x648 DUP3 PUSH2 0x2A9 JUMP JUMPDEST SWAP2 POP PUSH2 0x653 DUP4 PUSH2 0x2A9 JUMP JUMPDEST SWAP3 POP DUP3 DUP3 ADD SWAP1 POP DUP1 DUP3 GT ISZERO PUSH2 0x66B JUMPI PUSH2 0x66A PUSH2 0x611 JUMP JUMPDEST JUMPDEST SWAP3 SWAP2 POP POP JUMP JUMPDEST PUSH0 DUP2 SWAP1 POP DUP2 PUSH0 MSTORE PUSH1 0x20 PUSH0 KECCAK256 SWAP1 POP SWAP2 SWAP1 POP JUMP JUMPDEST PUSH0 PUSH1 0x20 PUSH1 0x1F DUP4 ADD DIV SWAP1 POP SWAP2 SWAP1 POP JUMP JUMPDEST PUSH0 DUP3 DUP3 SHL SWAP1 POP SWAP3 SWAP2 POP POP JUMP JUMPDEST PUSH0 PUSH1 0x8 DUP4 MUL PUSH2 0x6CD PUSH32 0xFFFFFFFFFFFFFFFFFFFFFFFFFFFFFFFFFFFFFFFFFFFFFFFFFFFFFFFFFFFFFFFF DUP3 PUSH2 0x692 JUMP JUMPDEST PUSH2 0x6D7 DUP7 DUP4 PUSH2 0x692 JUMP JUMPDEST SWAP6 POP DUP1 NOT DUP5 AND SWAP4 POP DUP1 DUP7 AND DUP5 OR SWAP3 POP POP POP SWAP4 SWAP3 POP POP POP JUMP JUMPDEST PUSH0 DUP2 SWAP1 POP SWAP2 SWAP1 POP JUMP JUMPDEST PUSH0 PUSH2 0x712 PUSH2 0x70D PUSH2 0x708 DUP5 PUSH2 0x2A9 JUMP JUMPDEST PUSH2 0x6EF JUMP JUMPDEST PUSH2 0x2A9 JUMP JUMPDEST SWAP1 POP SWAP2 SWAP1 POP JUMP JUMPDEST PUSH0 DUP2 SWAP1 POP SWAP2 SWAP1 POP JUMP JUMPDEST PUSH2 0x72B DUP4 PUSH2 0x6F8 JUMP JUMPDEST PUSH2 0x73F PUSH2 0x737 DUP3 PUSH2 0x719 JUMP JUMPDEST DUP5 DUP5 SLOAD PUSH2 0x69E JUMP JUMPDEST DUP3 SSTORE POP POP POP POP JUMP JUMPDEST PUSH0 SWAP1 JUMP JUMPDEST PUSH2 0x753 PUSH2 0x747 JUMP JUMPDEST PUSH2 0x75E DUP2 DUP5 DUP5 PUSH2 0x722 JUMP JUMPDEST POP POP POP JUMP JUMPDEST JUMPDEST DUP2 DUP2 LT ISZERO PUSH2 0x781 JUMPI PUSH2 0x776 PUSH0 DUP3 PUSH2 0x74B JUMP JUMPDEST PUSH1 0x1 DUP2 ADD SWAP1 POP PUSH2 0x764 JUMP JUMPDEST POP POP JUMP JUMPDEST PUSH1 0x1F DUP3 GT ISZERO PUSH2 0x7C6 JUMPI PUSH2 0x797 DUP2 PUSH2 0x671 JUMP JUMPDEST PUSH2 0x7A0 DUP5 PUSH2 0x683 JUMP JUMPDEST DUP2 ADD PUSH1 0x20 DUP6 LT ISZERO PUSH2 0x7AF JUMPI DUP2 SWAP1 POP JUMPDEST PUSH2 0x7C3 PUSH2 0x7BB DUP6 PUSH2 0x683 JUMP JUMPDEST DUP4 ADD DUP3 PUSH2 0x763 JUMP JUMPDEST POP POP JUMPDEST POP POP POP JUMP JUMPDEST PUSH0 DUP3 DUP3 SHR SWAP1 POP SWAP3 SWAP2 POP POP JUMP JUMPDEST PUSH0 PUSH2 0x7E6 PUSH0 NOT DUP5 PUSH1 0x8 MUL PUSH2 0x7CB JUMP JUMPDEST NOT DUP1 DUP4 AND SWAP2 POP POP SWAP3 SWAP2 POP POP JUMP JUMPDEST PUSH0 PUSH2 0x7FE DUP4 DUP4 PUSH2 0x7D7 JUMP JUMPDEST SWAP2 POP DUP3 PUSH1 0x2 MUL DUP3 OR SWAP1 POP SWAP3 SWAP2 POP POP JUMP JUMPDEST PUSH2 0x817 DUP3 PUSH2 0x316 JUMP JUMPDEST PUSH8 0xFFFFFFFFFFFFFFFF DUP2 GT ISZERO PUSH2 0x830 JUMPI PUSH2 0x82F PUSH2 0x3EF JUMP JUMPDEST JUMPDEST PUSH2 0x83A DUP3 SLOAD PUSH2 0x5E1 JUMP JUMPDEST PUSH2 0x845 DUP3 DUP3 DUP6 PUSH2 0x785 JUMP JUMPDEST PUSH0 PUSH1 0x20 SWAP1 POP PUSH1 0x1F DUP4 GT PUSH1 0x1 DUP2 EQ PUSH2 0x876 JUMPI PUSH0 DUP5 ISZERO PUSH2 0x864 JUMPI DUP3 DUP8 ADD MLOAD SWAP1 POP JUMPDEST PUSH2 0x86E DUP6 DUP3 PUSH2 0x7F3 JUMP JUMPDEST DUP7 SSTORE POP PUSH2 0x8D5 JUMP JUMPDEST PUSH1 0x1F NOT DUP5 AND PUSH2 0x884 DUP7 PUSH2 0x671 JUMP JUMPDEST PUSH0 JUMPDEST DUP3 DUP2 LT ISZERO PUSH2 0x8AB JUMPI DUP5 DUP10 ADD MLOAD DUP3 SSTORE PUSH1 0x1 DUP3 ADD SWAP2 POP PUSH1 0x20 DUP6 ADD SWAP5 POP PUSH1 0x20 DUP2 ADD SWAP1 POP PUSH2 0x886 JUMP JUMPDEST DUP7 DUP4 LT ISZERO PUSH2 0x8C8 JUMPI DUP5 DUP10 ADD MLOAD PUSH2 0x8C4 PUSH1 0x1F DUP10 AND DUP3 PUSH2 0x7D7 JUMP JUMPDEST DUP4 SSTORE POP JUMPDEST PUSH1 0x1 PUSH1 0x2 DUP9 MUL ADD DUP9 SSTORE POP POP POP JUMPDEST POP POP POP POP POP POP JUMP JUMPDEST PUSH0 DUP2 SWAP1 POP SWAP3 SWAP2 POP POP JUMP JUMPDEST PUSH0 PUSH2 0x8F1 DUP3 PUSH2 0x316 JUMP JUMPDEST PUSH2 0x8FB DUP2 DUP6 PUSH2 0x8DD JUMP JUMPDEST SWAP4 POP PUSH2 0x90B DUP2 DUP6 PUSH1 0x20 DUP7 ADD PUSH2 0x330 JUMP JUMPDEST DUP1 DUP5 ADD SWAP2 POP POP SWAP3 SWAP2 POP POP JUMP JUMPDEST PUSH0 PUSH2 0x922 DUP3 DUP5 PUSH2 0x8E7 JUMP JUMPDEST SWAP2 POP DUP2 SWAP1 POP SWAP3 SWAP2 POP POP JUMP INVALID LOG2 PUSH5 0x6970667358 0x22 SLT KECCAK256 LOG0 JUMPDEST CALLDATALOAD PC 0xB0 TIMESTAMP 0x4C CODECOPY SWAP6 PUSH10 0x19BF0B7F00D9B2A6A21A CALLDATASIZE 0xD5 EQ 0xA6 0xEC PUSH2 0xFCED SHL JUMPDEST 0xF7 NOT PUSH5 0x736F6C6343 STOP ADDMOD AND STOP CALLER "
		},
		"gasEstimates": {
			"creation": {
				"codeDepositCost": "480600",
				"executionCost": "516",
				"totalCost": "481116"
			},
			"external": {
				"addPerson(string,uint256)": "infinite",
				"arr_people(uint256)": "infinite",
				"nameToNumber(string)": "infinite",
				"retrieve()": "2432",
				"store(uint256)": "infinite"
			}
		},
		"methodIdentifiers": {
			"addPerson(string,uint256)": "6f760f41",
			"arr_people(uint256)": "0284c045",
			"nameToNumber(string)": "2fae4ffd",
			"retrieve()": "2e64cec1",
			"store(uint256)": "6057361d"
		}
	},
	"abi": [
		{
			"inputs": [
				{
					"internalType": "string",
					"name": "_name",
					"type": "string"
				},
				{
					"internalType": "uint256",
					"name": "_favouriteNumber",
					"type": "uint256"
				}
			],
			"name": "addPerson",
			"outputs": [],
			"stateMutability": "nonpayable",
			"type": "function"
		},
		{
			"inputs": [
				{
					"internalType": "uint256",
					"name": "",
					"type": "uint256"
				}
			],
			"name": "arr_people",
			"outputs": [
				{
					"internalType": "uint256",
					"name": "favouriteNumber",
					"type": "uint256"
				},
				{
					"internalType": "string",
					"name": "name",
					"type": "string"
				}
			],
			"stateMutability": "view",
			"type": "function"
		},
		{
			"inputs": [
				{
					"internalType": "string",
					"name": "",
					"type": "string"
				}
			],
			"name": "nameToNumber",
			"outputs": [
				{
					"internalType": "uint256",
					"name": "",
					"type": "uint256"
				}
			],
			"stateMutability": "view",
			"type": "function"
		},
		{
			"inputs": [],
			"name": "retrieve",
			"outputs": [
				{
					"internalType": "uint256",
					"name": "",
					"type": "uint256"
				}
			],
			"stateMutability": "view",
			"type": "function"
		},
		{
			"inputs": [
				{
					"internalType": "uint256",
					"name": "_favouriteNumber",
					"type": "uint256"
				}
			],
			"name": "store",
			"outputs": [],
			"stateMutability": "nonpayable",
			"type": "function"
		}
	]
}