{
	"data": {
		"bytecode": {
			"linkReferences": {},
			"object": "608060405234801561000f575f80fd5b506108f78061001d5f395ff3fe608060405234801561000f575f80fd5b5060043610610055575f3560e01c80630284c045146100595780632e64cec11461008a5780632fae4ffd146100a85780636057361d146100d85780636f760f41146100f4575b5f80fd5b610073600480360381019061006e91906102d0565b610110565b604051610081929190610394565b60405180910390f35b6100926101c5565b60405161009f91906103c2565b60405180910390f35b6100c260048036038101906100bd9190610507565b6101cd565b6040516100cf91906103c2565b60405180910390f35b6100f260048036038101906100ed91906102d0565b6101fa565b005b61010e6004803603810190610109919061054e565b610203565b005b6001818154811061011f575f80fd5b905f5260205f2090600202015f91509050805f015490806001018054610144906105d5565b80601f0160208091040260200160405190810160405280929190818152602001828054610170906105d5565b80156101bb5780601f10610192576101008083540402835291602001916101bb565b820191905f5260205f20905b81548152906001019060200180831161019e57829003601f168201915b5050505050905082565b5f8054905090565b6002818051602081018201805184825260208301602085012081835280955050505050505f915090505481565b805f8190555050565b5f6040518060400160405280838152602001848152509050600181908060018154018082558091505060019003905f5260205f2090600202015f909190919091505f820151815f0155602082015181600101908161026191906107a2565b5050508160028460405161027591906108ab565b908152602001604051809103902081905550505050565b5f604051905090565b5f80fd5b5f80fd5b5f819050919050565b6102af8161029d565b81146102b9575f80fd5b50565b5f813590506102ca816102a6565b92915050565b5f602082840312156102e5576102e4610295565b5b5f6102f2848285016102bc565b91505092915050565b6103048161029d565b82525050565b5f81519050919050565b5f82825260208201905092915050565b5f5b83811015610341578082015181840152602081019050610326565b5f8484015250505050565b5f601f19601f8301169050919050565b5f6103668261030a565b6103708185610314565b9350610380818560208601610324565b6103898161034c565b840191505092915050565b5f6040820190506103a75f8301856102fb565b81810360208301526103b9818461035c565b90509392505050565b5f6020820190506103d55f8301846102fb565b92915050565b5f80fd5b5f80fd5b7f4e487b71000000000000000000000000000000000000000000000000000000005f52604160045260245ffd5b6104198261034c565b810181811067ffffffffffffffff82111715610438576104376103e3565b5b80604052505050565b5f61044a61028c565b90506104568282610410565b919050565b5f67ffffffffffffffff821115610475576104746103e3565b5b61047e8261034c565b9050602081019050919050565b828183375f83830152505050565b5f6104ab6104a68461045b565b610441565b9050828152602081018484840111156104c7576104c66103df565b5b6104d284828561048b565b509392505050565b5f82601f8301126104ee576104ed6103db565b5b81356104fe848260208601610499565b91505092915050565b5f6020828403121561051c5761051b610295565b5b5f82013567ffffffffffffffff81111561053957610538610299565b5b610545848285016104da565b91505092915050565b5f806040838503121561056457610563610295565b5b5f83013567ffffffffffffffff81111561058157610580610299565b5b61058d858286016104da565b925050602061059e858286016102bc565b9150509250929050565b7f4e487b71000000000000000000000000000000000000000000000000000000005f52602260045260245ffd5b5f60028204905060018216806105ec57607f821691505b6020821081036105ff576105fe6105a8565b5b50919050565b5f819050815f5260205f209050919050565b5f6020601f8301049050919050565b5f82821b905092915050565b5f600883026106617fffffffffffffffffffffffffffffffffffffffffffffffffffffffffffffffff82610626565b61066b8683610626565b95508019841693508086168417925050509392505050565b5f819050919050565b5f6106a66106a161069c8461029d565b610683565b61029d565b9050919050565b5f819050919050565b6106bf8361068c565b6106d36106cb826106ad565b848454610632565b825550505050565b5f90565b6106e76106db565b6106f28184846106b6565b505050565b5b818110156107155761070a5f826106df565b6001810190506106f8565b5050565b601f82111561075a5761072b81610605565b61073484610617565b81016020851015610743578190505b61075761074f85610617565b8301826106f7565b50505b505050565b5f82821c905092915050565b5f61077a5f198460080261075f565b1980831691505092915050565b5f610792838361076b565b9150826002028217905092915050565b6107ab8261030a565b67ffffffffffffffff8111156107c4576107c36103e3565b5b6107ce82546105d5565b6107d9828285610719565b5f60209050601f83116001811461080a575f84156107f8578287015190505b6108028582610787565b865550610869565b601f19841661081886610605565b5f5b8281101561083f5784890151825560018201915060208501945060208101905061081a565b8683101561085c5784890151610858601f89168261076b565b8355505b6001600288020188555050505b505050505050565b5f81905092915050565b5f6108858261030a565b61088f8185610871565b935061089f818560208601610324565b80840191505092915050565b5f6108b6828461087b565b91508190509291505056fea26469706673582212205a9023c486cc03f44c34ecabe2b7825e66643640a7cae101409cc514ededc33d64736f6c63430008160033",
			"opcodes": "PUSH1 0x80 PUSH1 0x40 MSTORE CALLVALUE DUP1 ISZERO PUSH2 0xF JUMPI PUSH0 DUP1 REVERT JUMPDEST POP PUSH2 0x8F7 DUP1 PUSH2 0x1D PUSH0 CODECOPY PUSH0 RETURN INVALID PUSH1 0x80 PUSH1 0x40 MSTORE CALLVALUE DUP1 ISZERO PUSH2 0xF JUMPI PUSH0 DUP1 REVERT JUMPDEST POP PUSH1 0x4 CALLDATASIZE LT PUSH2 0x55 JUMPI PUSH0 CALLDATALOAD PUSH1 0xE0 SHR DUP1 PUSH4 0x284C045 EQ PUSH2 0x59 JUMPI DUP1 PUSH4 0x2E64CEC1 EQ PUSH2 0x8A JUMPI DUP1 PUSH4 0x2FAE4FFD EQ PUSH2 0xA8 JUMPI DUP1 PUSH4 0x6057361D EQ PUSH2 0xD8 JUMPI DUP1 PUSH4 0x6F760F41 EQ PUSH2 0xF4 JUMPI JUMPDEST PUSH0 DUP1 REVERT JUMPDEST PUSH2 0x73 PUSH1 0x4 DUP1 CALLDATASIZE SUB DUP2 ADD SWAP1 PUSH2 0x6E SWAP2 SWAP1 PUSH2 0x2D0 JUMP JUMPDEST PUSH2 0x110 JUMP JUMPDEST PUSH1 0x40 MLOAD PUSH2 0x81 SWAP3 SWAP2 SWAP1 PUSH2 0x394 JUMP JUMPDEST PUSH1 0x40 MLOAD DUP1 SWAP2 SUB SWAP1 RETURN JUMPDEST PUSH2 0x92 PUSH2 0x1C5 JUMP JUMPDEST PUSH1 0x40 MLOAD PUSH2 0x9F SWAP2 SWAP1 PUSH2 0x3C2 JUMP JUMPDEST PUSH1 0x40 MLOAD DUP1 SWAP2 SUB SWAP1 RETURN JUMPDEST PUSH2 0xC2 PUSH1 0x4 DUP1 CALLDATASIZE SUB DUP2 ADD SWAP1 PUSH2 0xBD SWAP2 SWAP1 PUSH2 0x507 JUMP JUMPDEST PUSH2 0x1CD JUMP JUMPDEST PUSH1 0x40 MLOAD PUSH2 0xCF SWAP2 SWAP1 PUSH2 0x3C2 JUMP JUMPDEST PUSH1 0x40 MLOAD DUP1 SWAP2 SUB SWAP1 RETURN JUMPDEST PUSH2 0xF2 PUSH1 0x4 DUP1 CALLDATASIZE SUB DUP2 ADD SWAP1 PUSH2 0xED SWAP2 SWAP1 PUSH2 0x2D0 JUMP JUMPDEST PUSH2 0x1FA JUMP JUMPDEST STOP JUMPDEST PUSH2 0x10E PUSH1 0x4 DUP1 CALLDATASIZE SUB DUP2 ADD SWAP1 PUSH2 0x109 SWAP2 SWAP1 PUSH2 0x54E JUMP JUMPDEST PUSH2 0x203 JUMP JUMPDEST STOP JUMPDEST PUSH1 0x1 DUP2 DUP2 SLOAD DUP2 LT PUSH2 0x11F JUMPI PUSH0 DUP1 REVERT JUMPDEST SWAP1 PUSH0 MSTORE PUSH1 0x20 PUSH0 KECCAK256 SWAP1 PUSH1 0x2 MUL ADD PUSH0 SWAP2 POP SWAP1 POP DUP1 PUSH0 ADD SLOAD SWAP1 DUP1 PUSH1 0x1 ADD DUP1 SLOAD PUSH2 0x144 SWAP1 PUSH2 0x5D5 JUMP JUMPDEST DUP1 PUSH1 0x1F ADD PUSH1 0x20 DUP1 SWAP2 DIV MUL PUSH1 0x20 ADD PUSH1 0x40 MLOAD SWAP1 DUP2 ADD PUSH1 0x40 MSTORE DUP1 SWAP3 SWAP2 SWAP1 DUP2 DUP2 MSTORE PUSH1 0x20 ADD DUP3 DUP1 SLOAD PUSH2 0x170 SWAP1 PUSH2 0x5D5 JUMP JUMPDEST DUP1 ISZERO PUSH2 0x1BB JUMPI DUP1 PUSH1 0x1F LT PUSH2 0x192 JUMPI PUSH2 0x100 DUP1 DUP4 SLOAD DIV MUL DUP4 MSTORE SWAP2 PUSH1 0x20 ADD SWAP2 PUSH2 0x1BB JUMP JUMPDEST DUP3 ADD SWAP2 SWAP1 PUSH0 MSTORE PUSH1 0x20 PUSH0 KECCAK256 SWAP1 JUMPDEST DUP2 SLOAD DUP2 MSTORE SWAP1 PUSH1 0x1 ADD SWAP1 PUSH1 0x20 ADD DUP1 DUP4 GT PUSH2 0x19E JUMPI DUP3 SWAP1 SUB PUSH1 0x1F AND DUP3 ADD SWAP2 JUMPDEST POP POP POP POP POP SWAP1 POP DUP3 JUMP JUMPDEST PUSH0 DUP1 SLOAD SWAP1 POP SWAP1 JUMP JUMPDEST PUSH1 0x2 DUP2 DUP1 MLOAD PUSH1 0x20 DUP2 ADD DUP3 ADD DUP1 MLOAD DUP5 DUP3 MSTORE PUSH1 0x20 DUP4 ADD PUSH1 0x20 DUP6 ADD KECCAK256 DUP2 DUP4 MSTORE DUP1 SWAP6 POP POP POP POP POP POP PUSH0 SWAP2 POP SWAP1 POP SLOAD DUP2 JUMP JUMPDEST DUP1 PUSH0 DUP2 SWAP1 SSTORE POP POP JUMP JUMPDEST PUSH0 PUSH1 0x40 MLOAD DUP1 PUSH1 0x40 ADD PUSH1 0x40 MSTORE DUP1 DUP4 DUP2 MSTORE PUSH1 0x20 ADD DUP5 DUP2 MSTORE POP SWAP1 POP PUSH1 0x1 DUP2 SWAP1 DUP1 PUSH1 0x1 DUP2 SLOAD ADD DUP1 DUP3 SSTORE DUP1 SWAP2 POP POP PUSH1 0x1 SWAP1 SUB SWAP1 PUSH0 MSTORE PUSH1 0x20 PUSH0 KECCAK256 SWAP1 PUSH1 0x2 MUL ADD PUSH0 SWAP1 SWAP2 SWAP1 SWAP2 SWAP1 SWAP2 POP PUSH0 DUP3 ADD MLOAD DUP2 PUSH0 ADD SSTORE PUSH1 0x20 DUP3 ADD MLOAD DUP2 PUSH1 0x1 ADD SWAP1 DUP2 PUSH2 0x261 SWAP2 SWAP1 PUSH2 0x7A2 JUMP JUMPDEST POP POP POP DUP2 PUSH1 0x2 DUP5 PUSH1 0x40 MLOAD PUSH2 0x275 SWAP2 SWAP1 PUSH2 0x8AB JUMP JUMPDEST SWAP1 DUP2 MSTORE PUSH1 0x20 ADD PUSH1 0x40 MLOAD DUP1 SWAP2 SUB SWAP1 KECCAK256 DUP2 SWAP1 SSTORE POP POP POP POP JUMP JUMPDEST PUSH0 PUSH1 0x40 MLOAD SWAP1 POP SWAP1 JUMP JUMPDEST PUSH0 DUP1 REVERT JUMPDEST PUSH0 DUP1 REVERT JUMPDEST PUSH0 DUP2 SWAP1 POP SWAP2 SWAP1 POP JUMP JUMPDEST PUSH2 0x2AF DUP2 PUSH2 0x29D JUMP JUMPDEST DUP2 EQ PUSH2 0x2B9 JUMPI PUSH0 DUP1 REVERT JUMPDEST POP JUMP JUMPDEST PUSH0 DUP2 CALLDATALOAD SWAP1 POP PUSH2 0x2CA DUP2 PUSH2 0x2A6 JUMP JUMPDEST SWAP3 SWAP2 POP POP JUMP JUMPDEST PUSH0 PUSH1 0x20 DUP3 DUP5 SUB SLT ISZERO PUSH2 0x2E5 JUMPI PUSH2 0x2E4 PUSH2 0x295 JUMP JUMPDEST JUMPDEST PUSH0 PUSH2 0x2F2 DUP5 DUP3 DUP6 ADD PUSH2 0x2BC JUMP JUMPDEST SWAP2 POP POP SWAP3 SWAP2 POP POP JUMP JUMPDEST PUSH2 0x304 DUP2 PUSH2 0x29D JUMP JUMPDEST DUP3 MSTORE POP POP JUMP JUMPDEST PUSH0 DUP2 MLOAD SWAP1 POP SWAP2 SWAP1 POP JUMP JUMPDEST PUSH0 DUP3 DUP3 MSTORE PUSH1 0x20 DUP3 ADD SWAP1 POP SWAP3 SWAP2 POP POP JUMP JUMPDEST PUSH0 JUMPDEST DUP4 DUP2 LT ISZERO PUSH2 0x341 JUMPI DUP1 DUP3 ADD MLOAD DUP2 DUP5 ADD MSTORE PUSH1 0x20 DUP2 ADD SWAP1 POP PUSH2 0x326 JUMP JUMPDEST PUSH0 DUP5 DUP5 ADD MSTORE POP POP POP POP JUMP JUMPDEST PUSH0 PUSH1 0x1F NOT PUSH1 0x1F DUP4 ADD AND SWAP1 POP SWAP2 SWAP1 POP JUMP JUMPDEST PUSH0 PUSH2 0x366 DUP3 PUSH2 0x30A JUMP JUMPDEST PUSH2 0x370 DUP2 DUP6 PUSH2 0x314 JUMP JUMPDEST SWAP4 POP PUSH2 0x380 DUP2 DUP6 PUSH1 0x20 DUP7 ADD PUSH2 0x324 JUMP JUMPDEST PUSH2 0x389 DUP2 PUSH2 0x34C JUMP JUMPDEST DUP5 ADD SWAP2 POP POP SWAP3 SWAP2 POP POP JUMP JUMPDEST PUSH0 PUSH1 0x40 DUP3 ADD SWAP1 POP PUSH2 0x3A7 PUSH0 DUP4 ADD DUP6 PUSH2 0x2FB JUMP JUMPDEST DUP2 DUP2 SUB PUSH1 0x20 DUP4 ADD MSTORE PUSH2 0x3B9 DUP2 DUP5 PUSH2 0x35C JUMP JUMPDEST SWAP1 POP SWAP4 SWAP3 POP POP POP JUMP JUMPDEST PUSH0 PUSH1 0x20 DUP3 ADD SWAP1 POP PUSH2 0x3D5 PUSH0 DUP4 ADD DUP5 PUSH2 0x2FB JUMP JUMPDEST SWAP3 SWAP2 POP POP JUMP JUMPDEST PUSH0 DUP1 REVERT JUMPDEST PUSH0 DUP1 REVERT JUMPDEST PUSH32 0x4E487B7100000000000000000000000000000000000000000000000000000000 PUSH0 MSTORE PUSH1 0x41 PUSH1 0x4 MSTORE PUSH1 0x24 PUSH0 REVERT JUMPDEST PUSH2 0x419 DUP3 PUSH2 0x34C JUMP JUMPDEST DUP2 ADD DUP2 DUP2 LT PUSH8 0xFFFFFFFFFFFFFFFF DUP3 GT OR ISZERO PUSH2 0x438 JUMPI PUSH2 0x437 PUSH2 0x3E3 JUMP JUMPDEST JUMPDEST DUP1 PUSH1 0x40 MSTORE POP POP POP JUMP JUMPDEST PUSH0 PUSH2 0x44A PUSH2 0x28C JUMP JUMPDEST SWAP1 POP PUSH2 0x456 DUP3 DUP3 PUSH2 0x410 JUMP JUMPDEST SWAP2 SWAP1 POP JUMP JUMPDEST PUSH0 PUSH8 0xFFFFFFFFFFFFFFFF DUP3 GT ISZERO PUSH2 0x475 JUMPI PUSH2 0x474 PUSH2 0x3E3 JUMP JUMPDEST JUMPDEST PUSH2 0x47E DUP3 PUSH2 0x34C JUMP JUMPDEST SWAP1 POP PUSH1 0x20 DUP2 ADD SWAP1 POP SWAP2 SWAP1 POP JUMP JUMPDEST DUP3 DUP2 DUP4 CALLDATACOPY PUSH0 DUP4 DUP4 ADD MSTORE POP POP POP JUMP JUMPDEST PUSH0 PUSH2 0x4AB PUSH2 0x4A6 DUP5 PUSH2 0x45B JUMP JUMPDEST PUSH2 0x441 JUMP JUMPDEST SWAP1 POP DUP3 DUP2 MSTORE PUSH1 0x20 DUP2 ADD DUP5 DUP5 DUP5 ADD GT ISZERO PUSH2 0x4C7 JUMPI PUSH2 0x4C6 PUSH2 0x3DF JUMP JUMPDEST JUMPDEST PUSH2 0x4D2 DUP5 DUP3 DUP6 PUSH2 0x48B JUMP JUMPDEST POP SWAP4 SWAP3 POP POP POP JUMP JUMPDEST PUSH0 DUP3 PUSH1 0x1F DUP4 ADD SLT PUSH2 0x4EE JUMPI PUSH2 0x4ED PUSH2 0x3DB JUMP JUMPDEST JUMPDEST DUP2 CALLDATALOAD PUSH2 0x4FE DUP5 DUP3 PUSH1 0x20 DUP7 ADD PUSH2 0x499 JUMP JUMPDEST SWAP2 POP POP SWAP3 SWAP2 POP POP JUMP JUMPDEST PUSH0 PUSH1 0x20 DUP3 DUP5 SUB SLT ISZERO PUSH2 0x51C JUMPI PUSH2 0x51B PUSH2 0x295 JUMP JUMPDEST JUMPDEST PUSH0 DUP3 ADD CALLDATALOAD PUSH8 0xFFFFFFFFFFFFFFFF DUP2 GT ISZERO PUSH2 0x539 JUMPI PUSH2 0x538 PUSH2 0x299 JUMP JUMPDEST JUMPDEST PUSH2 0x545 DUP5 DUP3 DUP6 ADD PUSH2 0x4DA JUMP JUMPDEST SWAP2 POP POP SWAP3 SWAP2 POP POP JUMP JUMPDEST PUSH0 DUP1 PUSH1 0x40 DUP4 DUP6 SUB SLT ISZERO PUSH2 0x564 JUMPI PUSH2 0x563 PUSH2 0x295 JUMP JUMPDEST JUMPDEST PUSH0 DUP4 ADD CALLDATALOAD PUSH8 0xFFFFFFFFFFFFFFFF DUP2 GT ISZERO PUSH2 0x581 JUMPI PUSH2 0x580 PUSH2 0x299 JUMP JUMPDEST JUMPDEST PUSH2 0x58D DUP6 DUP3 DUP7 ADD PUSH2 0x4DA JUMP JUMPDEST SWAP3 POP POP PUSH1 0x20 PUSH2 0x59E DUP6 DUP3 DUP7 ADD PUSH2 0x2BC JUMP JUMPDEST SWAP2 POP POP SWAP3 POP SWAP3 SWAP1 POP JUMP JUMPDEST PUSH32 0x4E487B7100000000000000000000000000000000000000000000000000000000 PUSH0 MSTORE PUSH1 0x22 PUSH1 0x4 MSTORE PUSH1 0x24 PUSH0 REVERT JUMPDEST PUSH0 PUSH1 0x2 DUP3 DIV SWAP1 POP PUSH1 0x1 DUP3 AND DUP1 PUSH2 0x5EC JUMPI PUSH1 0x7F DUP3 AND SWAP2 POP JUMPDEST PUSH1 0x20 DUP3 LT DUP2 SUB PUSH2 0x5FF JUMPI PUSH2 0x5FE PUSH2 0x5A8 JUMP JUMPDEST JUMPDEST POP SWAP2 SWAP1 POP JUMP JUMPDEST PUSH0 DUP2 SWAP1 POP DUP2 PUSH0 MSTORE PUSH1 0x20 PUSH0 KECCAK256 SWAP1 POP SWAP2 SWAP1 POP JUMP JUMPDEST PUSH0 PUSH1 0x20 PUSH1 0x1F DUP4 ADD DIV SWAP1 POP SWAP2 SWAP1 POP JUMP JUMPDEST PUSH0 DUP3 DUP3 SHL SWAP1 POP SWAP3 SWAP2 POP POP JUMP JUMPDEST PUSH0 PUSH1 0x8 DUP4 MUL PUSH2 0x661 PUSH32 0xFFFFFFFFFFFFFFFFFFFFFFFFFFFFFFFFFFFFFFFFFFFFFFFFFFFFFFFFFFFFFFFF DUP3 PUSH2 0x626 JUMP JUMPDEST PUSH2 0x66B DUP7 DUP4 PUSH2 0x626 JUMP JUMPDEST SWAP6 POP DUP1 NOT DUP5 AND SWAP4 POP DUP1 DUP7 AND DUP5 OR SWAP3 POP POP POP SWAP4 SWAP3 POP POP POP JUMP JUMPDEST PUSH0 DUP2 SWAP1 POP SWAP2 SWAP1 POP JUMP JUMPDEST PUSH0 PUSH2 0x6A6 PUSH2 0x6A1 PUSH2 0x69C DUP5 PUSH2 0x29D JUMP JUMPDEST PUSH2 0x683 JUMP JUMPDEST PUSH2 0x29D JUMP JUMPDEST SWAP1 POP SWAP2 SWAP1 POP JUMP JUMPDEST PUSH0 DUP2 SWAP1 POP SWAP2 SWAP1 POP JUMP JUMPDEST PUSH2 0x6BF DUP4 PUSH2 0x68C JUMP JUMPDEST PUSH2 0x6D3 PUSH2 0x6CB DUP3 PUSH2 0x6AD JUMP JUMPDEST DUP5 DUP5 SLOAD PUSH2 0x632 JUMP JUMPDEST DUP3 SSTORE POP POP POP POP JUMP JUMPDEST PUSH0 SWAP1 JUMP JUMPDEST PUSH2 0x6E7 PUSH2 0x6DB JUMP JUMPDEST PUSH2 0x6F2 DUP2 DUP5 DUP5 PUSH2 0x6B6 JUMP JUMPDEST POP POP POP JUMP JUMPDEST JUMPDEST DUP2 DUP2 LT ISZERO PUSH2 0x715 JUMPI PUSH2 0x70A PUSH0 DUP3 PUSH2 0x6DF JUMP JUMPDEST PUSH1 0x1 DUP2 ADD SWAP1 POP PUSH2 0x6F8 JUMP JUMPDEST POP POP JUMP JUMPDEST PUSH1 0x1F DUP3 GT ISZERO PUSH2 0x75A JUMPI PUSH2 0x72B DUP2 PUSH2 0x605 JUMP JUMPDEST PUSH2 0x734 DUP5 PUSH2 0x617 JUMP JUMPDEST DUP2 ADD PUSH1 0x20 DUP6 LT ISZERO PUSH2 0x743 JUMPI DUP2 SWAP1 POP JUMPDEST PUSH2 0x757 PUSH2 0x74F DUP6 PUSH2 0x617 JUMP JUMPDEST DUP4 ADD DUP3 PUSH2 0x6F7 JUMP JUMPDEST POP POP JUMPDEST POP POP POP JUMP JUMPDEST PUSH0 DUP3 DUP3 SHR SWAP1 POP SWAP3 SWAP2 POP POP JUMP JUMPDEST PUSH0 PUSH2 0x77A PUSH0 NOT DUP5 PUSH1 0x8 MUL PUSH2 0x75F JUMP JUMPDEST NOT DUP1 DUP4 AND SWAP2 POP POP SWAP3 SWAP2 POP POP JUMP JUMPDEST PUSH0 PUSH2 0x792 DUP4 DUP4 PUSH2 0x76B JUMP JUMPDEST SWAP2 POP DUP3 PUSH1 0x2 MUL DUP3 OR SWAP1 POP SWAP3 SWAP2 POP POP JUMP JUMPDEST PUSH2 0x7AB DUP3 PUSH2 0x30A JUMP JUMPDEST PUSH8 0xFFFFFFFFFFFFFFFF DUP2 GT ISZERO PUSH2 0x7C4 JUMPI PUSH2 0x7C3 PUSH2 0x3E3 JUMP JUMPDEST JUMPDEST PUSH2 0x7CE DUP3 SLOAD PUSH2 0x5D5 JUMP JUMPDEST PUSH2 0x7D9 DUP3 DUP3 DUP6 PUSH2 0x719 JUMP JUMPDEST PUSH0 PUSH1 0x20 SWAP1 POP PUSH1 0x1F DUP4 GT PUSH1 0x1 DUP2 EQ PUSH2 0x80A JUMPI PUSH0 DUP5 ISZERO PUSH2 0x7F8 JUMPI DUP3 DUP8 ADD MLOAD SWAP1 POP JUMPDEST PUSH2 0x802 DUP6 DUP3 PUSH2 0x787 JUMP JUMPDEST DUP7 SSTORE POP PUSH2 0x869 JUMP JUMPDEST PUSH1 0x1F NOT DUP5 AND PUSH2 0x818 DUP7 PUSH2 0x605 JUMP JUMPDEST PUSH0 JUMPDEST DUP3 DUP2 LT ISZERO PUSH2 0x83F JUMPI DUP5 DUP10 ADD MLOAD DUP3 SSTORE PUSH1 0x1 DUP3 ADD SWAP2 POP PUSH1 0x20 DUP6 ADD SWAP5 POP PUSH1 0x20 DUP2 ADD SWAP1 POP PUSH2 0x81A JUMP JUMPDEST DUP7 DUP4 LT ISZERO PUSH2 0x85C JUMPI DUP5 DUP10 ADD MLOAD PUSH2 0x858 PUSH1 0x1F DUP10 AND DUP3 PUSH2 0x76B JUMP JUMPDEST DUP4 SSTORE POP JUMPDEST PUSH1 0x1 PUSH1 0x2 DUP9 MUL ADD DUP9 SSTORE POP POP POP JUMPDEST POP POP POP POP POP POP JUMP JUMPDEST PUSH0 DUP2 SWAP1 POP SWAP3 SWAP2 POP POP JUMP JUMPDEST PUSH0 PUSH2 0x885 DUP3 PUSH2 0x30A JUMP JUMPDEST PUSH2 0x88F DUP2 DUP6 PUSH2 0x871 JUMP JUMPDEST SWAP4 POP PUSH2 0x89F DUP2 DUP6 PUSH1 0x20 DUP7 ADD PUSH2 0x324 JUMP JUMPDEST DUP1 DUP5 ADD SWAP2 POP POP SWAP3 SWAP2 POP POP JUMP JUMPDEST PUSH0 PUSH2 0x8B6 DUP3 DUP5 PUSH2 0x87B JUMP JUMPDEST SWAP2 POP DUP2 SWAP1 POP SWAP3 SWAP2 POP POP JUMP INVALID LOG2 PUSH5 0x6970667358 0x22 SLT KECCAK256 GAS SWAP1 0x23 0xC4 DUP7 0xCC SUB DELEGATECALL 0x4C CALLVALUE 0xEC 0xAB 0xE2 0xB7 DUP3 0x5E PUSH7 0x643640A7CAE101 BLOCKHASH SWAP13 0xC5 EQ 0xED 0xED 0xC3 RETURNDATASIZE PUSH5 0x736F6C6343 STOP ADDMOD AND STOP CALLER "
		},
		"gasEstimates": {
			"creation": {
				"codeDepositCost": "459000",
				"executionCost": "491",
				"totalCost": "459491"
			},
			"external": {
				"addPerson(string,uint256)": "infinite",
				"arr_people(uint256)": "infinite",
				"nameToNumber(string)": "infinite",
				"retrieve()": "2432",
				"store(uint256)": "22558"
			}
		},
		"methodIdentifiers": {
			"addPerson(string,uint256)": "6f760f41",
			"arr_people(uint256)": "0284c045",
			"nameToNumber(string)": "2fae4ffd",
			"retrieve()": "2e64cec1",
			"store(uint256)": "6057361d"
		}
	},
	"abi": [
		{
			"inputs": [
				{
					"internalType": "string",
					"name": "_name",
					"type": "string"
				},
				{
					"internalType": "uint256",
					"name": "_favouriteNumber",
					"type": "uint256"
				}
			],
			"name": "addPerson",
			"outputs": [],
			"stateMutability": "nonpayable",
			"type": "function"
		},
		{
			"inputs": [
				{
					"internalType": "uint256",
					"name": "",
					"type": "uint256"
				}
			],
			"name": "arr_people",
			"outputs": [
				{
					"internalType": "uint256",
					"name": "favouriteNumber",
					"type": "uint256"
				},
				{
					"internalType": "string",
					"name": "name",
					"type": "string"
				}
			],
			"stateMutability": "view",
			"type": "function"
		},
		{
			"inputs": [
				{
					"internalType": "string",
					"name": "",
					"type": "string"
				}
			],
			"name": "nameToNumber",
			"outputs": [
				{
					"internalType": "uint256",
					"name": "",
					"type": "uint256"
				}
			],
			"stateMutability": "view",
			"type": "function"
		},
		{
			"inputs": [],
			"name": "retrieve",
			"outputs": [
				{
					"internalType": "uint256",
					"name": "",
					"type": "uint256"
				}
			],
			"stateMutability": "view",
			"type": "function"
		},
		{
			"inputs": [
				{
					"internalType": "uint256",
					"name": "_favouriteNumber",
					"type": "uint256"
				}
			],
			"name": "store",
			"outputs": [],
			"stateMutability": "nonpayable",
			"type": "function"
		}
	]
}